{
  "contracts/Escrow.sol": {
    "Escrow": {
      "abi": [
        {
          "anonymous": false,
          "inputs": [
            {
              "indexed": false,
              "internalType": "uint256",
              "name": "definedOfferId",
              "type": "uint256"
            }
          ],
          "name": "DefinedOfferCancelled",
          "type": "event"
        },
        {
          "anonymous": false,
          "inputs": [
            {
              "indexed": false,
              "internalType": "uint256",
              "name": "displayedOfferId",
              "type": "uint256"
            }
          ],
          "name": "DisplayedOfferCancelled",
          "type": "event"
        },
        {
          "anonymous": false,
          "inputs": [
            {
              "indexed": false,
              "internalType": "uint256",
              "name": "displayedOfferId",
              "type": "uint256"
            },
            {
              "indexed": false,
              "internalType": "uint256",
              "name": "definedOfferId",
              "type": "uint256"
            }
          ],
          "name": "OfferAccepted",
          "type": "event"
        },
        {
          "anonymous": false,
          "inputs": [
            {
              "indexed": false,
              "internalType": "uint256",
              "name": "displayedOfferId",
              "type": "uint256"
            },
            {
              "indexed": false,
              "internalType": "uint256",
              "name": "definedOfferId",
              "type": "uint256"
            },
            {
              "indexed": false,
              "internalType": "address",
              "name": "maker",
              "type": "address"
            },
            {
              "components": [
                {
                  "components": [
                    {
                      "internalType": "address",
                      "name": "cAddr",
                      "type": "address"
                    },
                    {
                      "internalType": "uint256",
                      "name": "tokenId",
                      "type": "uint256"
                    }
                  ],
                  "internalType": "struct IEscrow.Nft[]",
                  "name": "nfts",
                  "type": "tuple[]"
                },
                {
                  "components": [
                    {
                      "internalType": "address",
                      "name": "cAddr",
                      "type": "address"
                    },
                    {
                      "internalType": "uint256",
                      "name": "value",
                      "type": "uint256"
                    }
                  ],
                  "internalType": "struct IEscrow.Pouch[]",
                  "name": "pouches",
                  "type": "tuple[]"
                }
              ],
              "indexed": false,
              "internalType": "struct IEscrow.Bundle",
              "name": "bundle",
              "type": "tuple"
            }
          ],
          "name": "OfferDefined",
          "type": "event"
        },
        {
          "anonymous": false,
          "inputs": [
            {
              "indexed": false,
              "internalType": "uint256",
              "name": "displayedOfferId",
              "type": "uint256"
            },
            {
              "indexed": false,
              "internalType": "address",
              "name": "maker",
              "type": "address"
            },
            {
              "components": [
                {
                  "components": [
                    {
                      "internalType": "address",
                      "name": "cAddr",
                      "type": "address"
                    },
                    {
                      "internalType": "uint256",
                      "name": "tokenId",
                      "type": "uint256"
                    }
                  ],
                  "internalType": "struct IEscrow.Nft[]",
                  "name": "nfts",
                  "type": "tuple[]"
                },
                {
                  "components": [
                    {
                      "internalType": "address",
                      "name": "cAddr",
                      "type": "address"
                    },
                    {
                      "internalType": "uint256",
                      "name": "value",
                      "type": "uint256"
                    }
                  ],
                  "internalType": "struct IEscrow.Pouch[]",
                  "name": "pouches",
                  "type": "tuple[]"
                }
              ],
              "indexed": false,
              "internalType": "struct IEscrow.Bundle",
              "name": "bundle",
              "type": "tuple"
            }
          ],
          "name": "OfferDisplayed",
          "type": "event"
        },
        {
          "anonymous": false,
          "inputs": [
            {
              "indexed": true,
              "internalType": "address",
              "name": "previousOwner",
              "type": "address"
            },
            {
              "indexed": true,
              "internalType": "address",
              "name": "newOwner",
              "type": "address"
            }
          ],
          "name": "OwnershipTransferred",
          "type": "event"
        },
        {
          "inputs": [
            {
              "internalType": "uint256",
              "name": "displayedOfferId",
              "type": "uint256"
            },
            {
              "internalType": "uint256",
              "name": "definedOfferId",
              "type": "uint256"
            }
          ],
          "name": "acceptOffer",
          "outputs": [],
          "stateMutability": "nonpayable",
          "type": "function"
        },
        {
          "inputs": [
            {
              "internalType": "uint256",
              "name": "definedOfferId",
              "type": "uint256"
            }
          ],
          "name": "cancelDefinedOffer",
          "outputs": [],
          "stateMutability": "nonpayable",
          "type": "function"
        },
        {
          "inputs": [
            {
              "internalType": "uint256",
              "name": "displayedOfferId",
              "type": "uint256"
            }
          ],
          "name": "cancelDisplayedOffer",
          "outputs": [],
          "stateMutability": "nonpayable",
          "type": "function"
        },
        {
          "inputs": [
            {
              "internalType": "uint256",
              "name": "displayedOfferId",
              "type": "uint256"
            },
            {
              "components": [
                {
                  "components": [
                    {
                      "internalType": "address",
                      "name": "cAddr",
                      "type": "address"
                    },
                    {
                      "internalType": "uint256",
                      "name": "tokenId",
                      "type": "uint256"
                    }
                  ],
                  "internalType": "struct IEscrow.Nft[]",
                  "name": "nfts",
                  "type": "tuple[]"
                },
                {
                  "components": [
                    {
                      "internalType": "address",
                      "name": "cAddr",
                      "type": "address"
                    },
                    {
                      "internalType": "uint256",
                      "name": "value",
                      "type": "uint256"
                    }
                  ],
                  "internalType": "struct IEscrow.Pouch[]",
                  "name": "pouches",
                  "type": "tuple[]"
                }
              ],
              "internalType": "struct IEscrow.Bundle",
              "name": "bundle",
              "type": "tuple"
            }
          ],
          "name": "defineOffer",
          "outputs": [],
          "stateMutability": "nonpayable",
          "type": "function"
        },
        {
          "inputs": [
            {
              "internalType": "uint256",
              "name": "",
              "type": "uint256"
            }
          ],
          "name": "definedOffers",
          "outputs": [
            {
              "internalType": "address",
              "name": "maker",
              "type": "address"
            },
            {
              "internalType": "uint256",
              "name": "displayedOfferId",
              "type": "uint256"
            },
            {
              "components": [
                {
                  "components": [
                    {
                      "internalType": "address",
                      "name": "cAddr",
                      "type": "address"
                    },
                    {
                      "internalType": "uint256",
                      "name": "tokenId",
                      "type": "uint256"
                    }
                  ],
                  "internalType": "struct IEscrow.Nft[]",
                  "name": "nfts",
                  "type": "tuple[]"
                },
                {
                  "components": [
                    {
                      "internalType": "address",
                      "name": "cAddr",
                      "type": "address"
                    },
                    {
                      "internalType": "uint256",
                      "name": "value",
                      "type": "uint256"
                    }
                  ],
                  "internalType": "struct IEscrow.Pouch[]",
                  "name": "pouches",
                  "type": "tuple[]"
                }
              ],
              "internalType": "struct IEscrow.Bundle",
              "name": "bundle",
              "type": "tuple"
            },
            {
              "internalType": "bool",
              "name": "available",
              "type": "bool"
            }
          ],
          "stateMutability": "view",
          "type": "function"
        },
        {
          "inputs": [
            {
              "components": [
                {
                  "components": [
                    {
                      "internalType": "address",
                      "name": "cAddr",
                      "type": "address"
                    },
                    {
                      "internalType": "uint256",
                      "name": "tokenId",
                      "type": "uint256"
                    }
                  ],
                  "internalType": "struct IEscrow.Nft[]",
                  "name": "nfts",
                  "type": "tuple[]"
                },
                {
                  "components": [
                    {
                      "internalType": "address",
                      "name": "cAddr",
                      "type": "address"
                    },
                    {
                      "internalType": "uint256",
                      "name": "value",
                      "type": "uint256"
                    }
                  ],
                  "internalType": "struct IEscrow.Pouch[]",
                  "name": "pouches",
                  "type": "tuple[]"
                }
              ],
              "internalType": "struct IEscrow.Bundle",
              "name": "bundle",
              "type": "tuple"
            }
          ],
          "name": "displayOffer",
          "outputs": [],
          "stateMutability": "nonpayable",
          "type": "function"
        },
        {
          "inputs": [
            {
              "internalType": "uint256",
              "name": "",
              "type": "uint256"
            }
          ],
          "name": "displayedOffers",
          "outputs": [
            {
              "internalType": "address",
              "name": "maker",
              "type": "address"
            },
            {
              "components": [
                {
                  "components": [
                    {
                      "internalType": "address",
                      "name": "cAddr",
                      "type": "address"
                    },
                    {
                      "internalType": "uint256",
                      "name": "tokenId",
                      "type": "uint256"
                    }
                  ],
                  "internalType": "struct IEscrow.Nft[]",
                  "name": "nfts",
                  "type": "tuple[]"
                },
                {
                  "components": [
                    {
                      "internalType": "address",
                      "name": "cAddr",
                      "type": "address"
                    },
                    {
                      "internalType": "uint256",
                      "name": "value",
                      "type": "uint256"
                    }
                  ],
                  "internalType": "struct IEscrow.Pouch[]",
                  "name": "pouches",
                  "type": "tuple[]"
                }
              ],
              "internalType": "struct IEscrow.Bundle",
              "name": "bundle",
              "type": "tuple"
            },
            {
              "internalType": "bool",
              "name": "available",
              "type": "bool"
            }
          ],
          "stateMutability": "view",
          "type": "function"
        },
        {
          "inputs": [],
          "name": "owner",
          "outputs": [
            {
              "internalType": "address",
              "name": "",
              "type": "address"
            }
          ],
          "stateMutability": "view",
          "type": "function"
        },
        {
          "inputs": [],
          "name": "renounceOwnership",
          "outputs": [],
          "stateMutability": "nonpayable",
          "type": "function"
        },
        {
          "inputs": [
            {
              "internalType": "address",
              "name": "newOwner",
              "type": "address"
            }
          ],
          "name": "transferOwnership",
          "outputs": [],
          "stateMutability": "nonpayable",
          "type": "function"
        }
      ],
      "evm": {
        "bytecode": {
          "linkReferences": {},
          "object": "60806040523480156200001157600080fd5b5062000032620000266200003860201b60201c565b6200004060201b60201c565b62000104565b600033905090565b60008060009054906101000a900473ffffffffffffffffffffffffffffffffffffffff169050816000806101000a81548173ffffffffffffffffffffffffffffffffffffffff021916908373ffffffffffffffffffffffffffffffffffffffff1602179055508173ffffffffffffffffffffffffffffffffffffffff168173ffffffffffffffffffffffffffffffffffffffff167f8be0079c531659141344cd1fd0a4f28419497f9722a3daafe3b4186f6b6457e060405160405180910390a35050565b612c0780620001146000396000f3fe608060405234801561001057600080fd5b506004361061009e5760003560e01c806399342de01161006657806399342de014610135578063d4f640ab14610151578063de76b70514610184578063ec85c31f146101a0578063f2fde38b146101bc5761009e565b80633185cc51146100a357806363ec6431146100bf578063715018a6146100f157806381257bd5146100fb5780638da5cb5b14610117575b600080fd5b6100bd60048036038101906100b89190611684565b6101d8565b005b6100d960048036038101906100d49190611703565b6102b9565b6040516100e8939291906119aa565b60405180910390f35b6100f96104a8565b005b610115600480360381019061011091906119e8565b610530565b005b61011f6107d5565b60405161012c9190611a28565b60405180910390f35b61014f600480360381019061014a9190611703565b6107fe565b005b61016b60048036038101906101669190611703565b61095f565b60405161017b9493929190611a52565b60405180910390f35b61019e60048036038101906101999190611703565b610b54565b005b6101ba60048036038101906101b59190611a9e565b610cb5565b005b6101d660048036038101906101d19190611b26565b610da1565b005b600033905060006002805490509050600060026001816001815401808255809150500390600052602060002090600402019050828160000160006101000a81548173ffffffffffffffffffffffffffffffffffffffff021916908373ffffffffffffffffffffffffffffffffffffffff16021790555060018160030160006101000a81548160ff0219169083151502179055506102788160010185610e98565b7fb53532ebacedf8b1c67ba597ee0b462c7135dc33b1ef81f9467838845f7137bf8284866040516102ab93929190611e5a565b60405180910390a150505050565b600281815481106102c957600080fd5b90600052602060002090600402016000915090508060000160009054906101000a900473ffffffffffffffffffffffffffffffffffffffff16908060010160405180604001604052908160008201805480602002602001604051908101604052809291908181526020016000905b828210156103c957838290600052602060002090600202016040518060400160405290816000820160009054906101000a900473ffffffffffffffffffffffffffffffffffffffff1673ffffffffffffffffffffffffffffffffffffffff1673ffffffffffffffffffffffffffffffffffffffff16815260200160018201548152505081526020019060010190610337565b50505050815260200160018201805480602002602001604051908101604052809291908181526020016000905b8282101561048857838290600052602060002090600202016040518060400160405290816000820160009054906101000a900473ffffffffffffffffffffffffffffffffffffffff1673ffffffffffffffffffffffffffffffffffffffff1673ffffffffffffffffffffffffffffffffffffffff168152602001600182015481525050815260200190600101906103f6565b5050505081525050908060030160009054906101000a900460ff16905083565b6104b0610fc0565b73ffffffffffffffffffffffffffffffffffffffff166104ce6107d5565b73ffffffffffffffffffffffffffffffffffffffff1614610524576040517f08c379a000000000000000000000000000000000000000000000000000000000815260040161051b90611ef5565b60405180910390fd5b61052e6000610fc8565b565b60006002838154811061054657610545611f15565b5b906000526020600020906004020190508060000160009054906101000a900473ffffffffffffffffffffffffffffffffffffffff1673ffffffffffffffffffffffffffffffffffffffff163373ffffffffffffffffffffffffffffffffffffffff16146105e8576040517f08c379a00000000000000000000000000000000000000000000000000000000081526004016105df90611fb6565b60405180910390fd5b8060030160009054906101000a900460ff16610639576040517f08c379a000000000000000000000000000000000000000000000000000000000815260040161063090612022565b60405180910390fd5b60008160030160006101000a81548160ff02191690831515021790555060006001838154811061066c5761066b611f15565b5b906000526020600020906005020190508060040160009054906101000a900460ff166106cd576040517f08c379a00000000000000000000000000000000000000000000000000000000081526004016106c49061208e565b60405180910390fd5b60008160040160006101000a81548160ff0219169083151502179055506107408260000160009054906101000a900473ffffffffffffffffffffffffffffffffffffffff168260000160009054906101000a900473ffffffffffffffffffffffffffffffffffffffff168460010161108c565b6107968160000160009054906101000a900473ffffffffffffffffffffffffffffffffffffffff168360000160009054906101000a900473ffffffffffffffffffffffffffffffffffffffff168360020161108c565b7f397f87b3946767b09967764d50032941de13a2606bcb39dfed61d7b1ed0192cc84846040516107c79291906120ae565b60405180910390a150505050565b60008060009054906101000a900473ffffffffffffffffffffffffffffffffffffffff16905090565b60006002828154811061081457610813611f15565b5b906000526020600020906004020190508060000160009054906101000a900473ffffffffffffffffffffffffffffffffffffffff1673ffffffffffffffffffffffffffffffffffffffff163373ffffffffffffffffffffffffffffffffffffffff16146108b6576040517f08c379a00000000000000000000000000000000000000000000000000000000081526004016108ad90612149565b60405180910390fd5b8060030160009054906101000a900460ff16610907576040517f08c379a00000000000000000000000000000000000000000000000000000000081526004016108fe906121db565b60405180910390fd5b60008160030160006101000a81548160ff0219169083151502179055507f18be31c8ada4c507090ca68b2399f6f1aa8490307119af9af60bbc93ed8d5a778260405161095391906121fb565b60405180910390a15050565b6001818154811061096f57600080fd5b90600052602060002090600502016000915090508060000160009054906101000a900473ffffffffffffffffffffffffffffffffffffffff16908060010154908060020160405180604001604052908160008201805480602002602001604051908101604052809291908181526020016000905b82821015610a7557838290600052602060002090600202016040518060400160405290816000820160009054906101000a900473ffffffffffffffffffffffffffffffffffffffff1673ffffffffffffffffffffffffffffffffffffffff1673ffffffffffffffffffffffffffffffffffffffff168152602001600182015481525050815260200190600101906109e3565b50505050815260200160018201805480602002602001604051908101604052809291908181526020016000905b82821015610b3457838290600052602060002090600202016040518060400160405290816000820160009054906101000a900473ffffffffffffffffffffffffffffffffffffffff1673ffffffffffffffffffffffffffffffffffffffff1673ffffffffffffffffffffffffffffffffffffffff16815260200160018201548152505081526020019060010190610aa2565b5050505081525050908060040160009054906101000a900460ff16905084565b600060018281548110610b6a57610b69611f15565b5b906000526020600020906005020190508060000160009054906101000a900473ffffffffffffffffffffffffffffffffffffffff1673ffffffffffffffffffffffffffffffffffffffff163373ffffffffffffffffffffffffffffffffffffffff1614610c0c576040517f08c379a0000000000000000000000000000000000000000000000000000000008152600401610c0390612288565b60405180910390fd5b8060040160009054906101000a900460ff16610c5d576040517f08c379a0000000000000000000000000000000000000000000000000000000008152600401610c549061231a565b60405180910390fd5b60008160040160006101000a81548160ff0219169083151502179055507f8049dd3f56e987a57aed49112084f86c2d92860417ece91b7570694ba3d65bd882604051610ca991906121fb565b60405180910390a15050565b6000339050600060018054905090506000600180816001815401808255809150500390600052602060002090600502019050828160000160006101000a81548173ffffffffffffffffffffffffffffffffffffffff021916908373ffffffffffffffffffffffffffffffffffffffff16021790555060018160040160006101000a81548160ff021916908315150217905550848160010181905550610d5d8160020185610e98565b7f41e1878d8e6f8ebcdd08214424689a2d523ae489e437cfa35ecf14cec123034785838587604051610d92949392919061233a565b60405180910390a15050505050565b610da9610fc0565b73ffffffffffffffffffffffffffffffffffffffff16610dc76107d5565b73ffffffffffffffffffffffffffffffffffffffff1614610e1d576040517f08c379a0000000000000000000000000000000000000000000000000000000008152600401610e1490611ef5565b60405180910390fd5b600073ffffffffffffffffffffffffffffffffffffffff168173ffffffffffffffffffffffffffffffffffffffff1603610e8c576040517f08c379a0000000000000000000000000000000000000000000000000000000008152600401610e83906123f8565b60405180910390fd5b610e9581610fc8565b50565b60005b818060000190610eab9190612427565b9050811015610f295782600001828060000190610ec89190612427565b83818110610ed957610ed8611f15565b5b90506040020190806001815401808255809150506001900390600052602060002090600202016000909190919091508181610f14919061264d565b50508080610f219061268a565b915050610e9b565b5060005b818060200190610f3d91906126d2565b9050811015610fbb5782600101828060200190610f5a91906126d2565b83818110610f6b57610f6a611f15565b5b90506040020190806001815401808255809150506001900390600052602060002090600202016000909190919091508181610fa6919061277b565b50508080610fb39061268a565b915050610f2d565b505050565b600033905090565b60008060009054906101000a900473ffffffffffffffffffffffffffffffffffffffff169050816000806101000a81548173ffffffffffffffffffffffffffffffffffffffff021916908373ffffffffffffffffffffffffffffffffffffffff1602179055508173ffffffffffffffffffffffffffffffffffffffff168173ffffffffffffffffffffffffffffffffffffffff167f8be0079c531659141344cd1fd0a4f28419497f9722a3daafe3b4186f6b6457e060405160405180910390a35050565b6000816000019050600082600101905060005b82805490508110156111185760008382815481106110c0576110bf611f15565b5b906000526020600020906002020190506111048160000160009054906101000a900473ffffffffffffffffffffffffffffffffffffffff16888884600101546111be565b5080806111109061268a565b91505061109f565b5060005b81805490508110156111b657600082828154811061113d5761113c611f15565b5b906000526020600020906002020190506111a2878783600101548460000160009054906101000a900473ffffffffffffffffffffffffffffffffffffffff1673ffffffffffffffffffffffffffffffffffffffff16611350909392919063ffffffff16565b5080806111ae9061268a565b91505061111c565b505050505050565b60008473ffffffffffffffffffffffffffffffffffffffff166301ffc9a77f80ac58cd000000000000000000000000000000000000000000000000000000006040518263ffffffff1660e01b815260040161121991906127c4565b602060405180830381865afa158015611236573d6000803e3d6000fd5b505050506040513d601f19601f8201168201806040525081019061125a919061280b565b905080156112d6578473ffffffffffffffffffffffffffffffffffffffff166342842e0e8585856040518463ffffffff1660e01b815260040161129f93929190612838565b600060405180830381600087803b1580156112b957600080fd5b505af11580156112cd573d6000803e3d6000fd5b50505050611349565b8473ffffffffffffffffffffffffffffffffffffffff1663f242432a85858560016040518563ffffffff1660e01b815260040161131694939291906128e1565b600060405180830381600087803b15801561133057600080fd5b505af1158015611344573d6000803e3d6000fd5b505050505b5050505050565b6113d3846323b872dd60e01b85858560405160240161137193929190612838565b604051602081830303815290604052907bffffffffffffffffffffffffffffffffffffffffffffffffffffffff19166020820180517bffffffffffffffffffffffffffffffffffffffffffffffffffffffff83818316178352505050506113d9565b50505050565b600061143b826040518060400160405280602081526020017f5361666545524332303a206c6f772d6c6576656c2063616c6c206661696c65648152508573ffffffffffffffffffffffffffffffffffffffff166114a09092919063ffffffff16565b905060008151111561149b578080602001905181019061145b919061280b565b61149a576040517f08c379a0000000000000000000000000000000000000000000000000000000008152600401611491906129ab565b60405180910390fd5b5b505050565b60606114af84846000856114b8565b90509392505050565b6060824710156114fd576040517f08c379a00000000000000000000000000000000000000000000000000000000081526004016114f490612a3d565b60405180910390fd5b611506856115cc565b611545576040517f08c379a000000000000000000000000000000000000000000000000000000000815260040161153c90612aa9565b60405180910390fd5b6000808673ffffffffffffffffffffffffffffffffffffffff16858760405161156e9190612b43565b60006040518083038185875af1925050503d80600081146115ab576040519150601f19603f3d011682016040523d82523d6000602084013e6115b0565b606091505b50915091506115c08282866115ef565b92505050949350505050565b6000808273ffffffffffffffffffffffffffffffffffffffff163b119050919050565b606083156115ff5782905061164f565b6000835111156116125782518084602001fd5b816040517f08c379a00000000000000000000000000000000000000000000000000000000081526004016116469190612baf565b60405180910390fd5b9392505050565b600080fd5b600080fd5b600080fd5b60006040828403121561167b5761167a611660565b5b81905092915050565b60006020828403121561169a57611699611656565b5b600082013567ffffffffffffffff8111156116b8576116b761165b565b5b6116c484828501611665565b91505092915050565b6000819050919050565b6116e0816116cd565b81146116eb57600080fd5b50565b6000813590506116fd816116d7565b92915050565b60006020828403121561171957611718611656565b5b6000611727848285016116ee565b91505092915050565b600073ffffffffffffffffffffffffffffffffffffffff82169050919050565b600061175b82611730565b9050919050565b61176b81611750565b82525050565b600081519050919050565b600082825260208201905092915050565b6000819050602082019050919050565b6117a681611750565b82525050565b6117b5816116cd565b82525050565b6040820160008201516117d1600085018261179d565b5060208201516117e460208501826117ac565b50505050565b60006117f683836117bb565b60408301905092915050565b6000602082019050919050565b600061181a82611771565b611824818561177c565b935061182f8361178d565b8060005b8381101561186057815161184788826117ea565b975061185283611802565b925050600181019050611833565b5085935050505092915050565b600081519050919050565b600082825260208201905092915050565b6000819050602082019050919050565b6040820160008201516118af600085018261179d565b5060208201516118c260208501826117ac565b50505050565b60006118d48383611899565b60408301905092915050565b6000602082019050919050565b60006118f88261186d565b6119028185611878565b935061190d83611889565b8060005b8381101561193e57815161192588826118c8565b9750611930836118e0565b925050600181019050611911565b5085935050505092915050565b60006040830160008301518482036000860152611968828261180f565b9150506020830151848203602086015261198282826118ed565b9150508091505092915050565b60008115159050919050565b6119a48161198f565b82525050565b60006060820190506119bf6000830186611762565b81810360208301526119d1818561194b565b90506119e0604083018461199b565b949350505050565b600080604083850312156119ff576119fe611656565b5b6000611a0d858286016116ee565b9250506020611a1e858286016116ee565b9150509250929050565b6000602082019050611a3d6000830184611762565b92915050565b611a4c816116cd565b82525050565b6000608082019050611a676000830187611762565b611a746020830186611a43565b8181036040830152611a86818561194b565b9050611a95606083018461199b565b95945050505050565b60008060408385031215611ab557611ab4611656565b5b6000611ac3858286016116ee565b925050602083013567ffffffffffffffff811115611ae457611ae361165b565b5b611af085828601611665565b9150509250929050565b611b0381611750565b8114611b0e57600080fd5b50565b600081359050611b2081611afa565b92915050565b600060208284031215611b3c57611b3b611656565b5b6000611b4a84828501611b11565b91505092915050565b600080fd5b600080fd5b600080fd5b60008083356001602003843603038112611b7f57611b7e611b5d565b5b83810192508235915060208301925067ffffffffffffffff821115611ba757611ba6611b53565b5b604082023603831315611bbd57611bbc611b58565b5b509250929050565b6000819050919050565b6000611bde6020840184611b11565b905092915050565b6000611bf560208401846116ee565b905092915050565b60408201611c0e6000830183611bcf565b611c1b600085018261179d565b50611c296020830183611be6565b611c3660208501826117ac565b50505050565b6000611c488383611bfd565b60408301905092915050565b600082905092915050565b6000604082019050919050565b6000611c78838561177c565b9350611c8382611bc5565b8060005b85811015611cbc57611c998284611c54565b611ca38882611c3c565b9750611cae83611c5f565b925050600181019050611c87565b5085925050509392505050565b60008083356001602003843603038112611ce657611ce5611b5d565b5b83810192508235915060208301925067ffffffffffffffff821115611d0e57611d0d611b53565b5b604082023603831315611d2457611d23611b58565b5b509250929050565b6000819050919050565b60408201611d476000830183611bcf565b611d54600085018261179d565b50611d626020830183611be6565b611d6f60208501826117ac565b50505050565b6000611d818383611d36565b60408301905092915050565b600082905092915050565b6000604082019050919050565b6000611db18385611878565b9350611dbc82611d2c565b8060005b85811015611df557611dd28284611d8d565b611ddc8882611d75565b9750611de783611d98565b925050600181019050611dc0565b5085925050509392505050565b600060408301611e156000840184611b62565b8583036000870152611e28838284611c6c565b92505050611e396020840184611cc9565b8583036020870152611e4c838284611da5565b925050508091505092915050565b6000606082019050611e6f6000830186611a43565b611e7c6020830185611762565b8181036040830152611e8e8184611e02565b9050949350505050565b600082825260208201905092915050565b7f4f776e61626c653a2063616c6c6572206973206e6f7420746865206f776e6572600082015250565b6000611edf602083611e98565b9150611eea82611ea9565b602082019050919050565b60006020820190508181036000830152611f0e81611ed2565b9050919050565b7f4e487b7100000000000000000000000000000000000000000000000000000000600052603260045260246000fd5b7f43616e206f6e6c79206d616e616765206f776e20646973706c61796564206f6660008201527f6665727300000000000000000000000000000000000000000000000000000000602082015250565b6000611fa0602483611e98565b9150611fab82611f44565b604082019050919050565b60006020820190508181036000830152611fcf81611f93565b9050919050565b7f446973706c61796564206f6666657220697320696e6163746976652e00000000600082015250565b600061200c601c83611e98565b915061201782611fd6565b602082019050919050565b6000602082019050818103600083015261203b81611fff565b9050919050565b7f446566696e6564206f6666657220697320696e6163746976652e000000000000600082015250565b6000612078601a83611e98565b915061208382612042565b602082019050919050565b600060208201905081810360008301526120a78161206b565b9050919050565b60006040820190506120c36000830185611a43565b6120d06020830184611a43565b9392505050565b7f43616e206f6e6c792072656d6f7665206f776e20646973706c61796564206f6660008201527f6665727300000000000000000000000000000000000000000000000000000000602082015250565b6000612133602483611e98565b915061213e826120d7565b604082019050919050565b6000602082019050818103600083015261216281612126565b9050919050565b7f446973706c61796564206f6666657220697320616c726561647920696e61637460008201527f6976652e00000000000000000000000000000000000000000000000000000000602082015250565b60006121c5602483611e98565b91506121d082612169565b604082019050919050565b600060208201905081810360008301526121f4816121b8565b9050919050565b60006020820190506122106000830184611a43565b92915050565b7f43616e206f6e6c792072656d6f7665206f776e20646566696e6564206f66666560008201527f7273000000000000000000000000000000000000000000000000000000000000602082015250565b6000612272602283611e98565b915061227d82612216565b604082019050919050565b600060208201905081810360008301526122a181612265565b9050919050565b7f446566696e6564206f6666657220697320616c726561647920696e616374697660008201527f652e000000000000000000000000000000000000000000000000000000000000602082015250565b6000612304602283611e98565b915061230f826122a8565b604082019050919050565b60006020820190508181036000830152612333816122f7565b9050919050565b600060808201905061234f6000830187611a43565b61235c6020830186611a43565b6123696040830185611762565b818103606083015261237b8184611e02565b905095945050505050565b7f4f776e61626c653a206e6577206f776e657220697320746865207a65726f206160008201527f6464726573730000000000000000000000000000000000000000000000000000602082015250565b60006123e2602683611e98565b91506123ed82612386565b604082019050919050565b60006020820190508181036000830152612411816123d5565b9050919050565b600080fd5b600080fd5b600080fd5b6000808335600160200384360303811261244457612443612418565b5b80840192508235915067ffffffffffffffff8211156124665761246561241d565b5b60208301925060408202360383131561248257612481612422565b5b509250929050565b6000813561249781611afa565b80915050919050565b60008160001b9050919050565b600073ffffffffffffffffffffffffffffffffffffffff6124cd846124a0565b9350801983169250808416831791505092915050565b6000819050919050565b60006125086125036124fe84611730565b6124e3565b611730565b9050919050565b600061251a826124ed565b9050919050565b600061252c8261250f565b9050919050565b6000819050919050565b61254682612521565b61255961255282612533565b83546124ad565b8255505050565b6000813561256d816116d7565b80915050919050565b60007fffffffffffffffffffffffffffffffffffffffffffffffffffffffffffffffff6125a2846124a0565b9350801983169250808416831791505092915050565b60006125d36125ce6125c9846116cd565b6124e3565b6116cd565b9050919050565b6000819050919050565b6125ed826125b8565b6126006125f9826125da565b8354612576565b8255505050565b6000810160008301806126198161248a565b9050612625818461253d565b50505060018101602083018061263a81612560565b905061264681846125e4565b5050505050565b6126578282612607565b5050565b7f4e487b7100000000000000000000000000000000000000000000000000000000600052601160045260246000fd5b6000612695826116cd565b91507fffffffffffffffffffffffffffffffffffffffffffffffffffffffffffffffff82036126c7576126c661265b565b5b600182019050919050565b600080833560016020038436030381126126ef576126ee612418565b5b80840192508235915067ffffffffffffffff8211156127115761271061241d565b5b60208301925060408202360383131561272d5761272c612422565b5b509250929050565b6000810160008301806127478161248a565b9050612753818461253d565b50505060018101602083018061276881612560565b905061277481846125e4565b5050505050565b6127858282612735565b5050565b60007fffffffff0000000000000000000000000000000000000000000000000000000082169050919050565b6127be81612789565b82525050565b60006020820190506127d960008301846127b5565b92915050565b6127e88161198f565b81146127f357600080fd5b50565b600081519050612805816127df565b92915050565b60006020828403121561282157612820611656565b5b600061282f848285016127f6565b91505092915050565b600060608201905061284d6000830186611762565b61285a6020830185611762565b6128676040830184611a43565b949350505050565b6000819050919050565b600061289461288f61288a8461286f565b6124e3565b6116cd565b9050919050565b6128a481612879565b82525050565b600082825260208201905092915050565b50565b60006128cb6000836128aa565b91506128d6826128bb565b600082019050919050565b600060a0820190506128f66000830187611762565b6129036020830186611762565b6129106040830185611a43565b61291d606083018461289b565b818103608083015261292e816128be565b905095945050505050565b7f5361666545524332303a204552433230206f7065726174696f6e20646964206e60008201527f6f74207375636365656400000000000000000000000000000000000000000000602082015250565b6000612995602a83611e98565b91506129a082612939565b604082019050919050565b600060208201905081810360008301526129c481612988565b9050919050565b7f416464726573733a20696e73756666696369656e742062616c616e636520666f60008201527f722063616c6c0000000000000000000000000000000000000000000000000000602082015250565b6000612a27602683611e98565b9150612a32826129cb565b604082019050919050565b60006020820190508181036000830152612a5681612a1a565b9050919050565b7f416464726573733a2063616c6c20746f206e6f6e2d636f6e7472616374000000600082015250565b6000612a93601d83611e98565b9150612a9e82612a5d565b602082019050919050565b60006020820190508181036000830152612ac281612a86565b9050919050565b600081519050919050565b600081905092915050565b60005b83811015612afd578082015181840152602081019050612ae2565b83811115612b0c576000848401525b50505050565b6000612b1d82612ac9565b612b278185612ad4565b9350612b37818560208601612adf565b80840191505092915050565b6000612b4f8284612b12565b915081905092915050565b600081519050919050565b6000601f19601f8301169050919050565b6000612b8182612b5a565b612b8b8185611e98565b9350612b9b818560208601612adf565b612ba481612b65565b840191505092915050565b60006020820190508181036000830152612bc98184612b76565b90509291505056fea26469706673582212205b3417b9561d4e55710bcc9e64bef3fb7ec6d0a712fd93e86ead901bdde2d86f64736f6c634300080e0033",
          "opcodes": "PUSH1 0x80 PUSH1 0x40 MSTORE CALLVALUE DUP1 ISZERO PUSH3 0x11 JUMPI PUSH1 0x0 DUP1 REVERT JUMPDEST POP PUSH3 0x32 PUSH3 0x26 PUSH3 0x38 PUSH1 0x20 SHL PUSH1 0x20 SHR JUMP JUMPDEST PUSH3 0x40 PUSH1 0x20 SHL PUSH1 0x20 SHR JUMP JUMPDEST PUSH3 0x104 JUMP JUMPDEST PUSH1 0x0 CALLER SWAP1 POP SWAP1 JUMP JUMPDEST PUSH1 0x0 DUP1 PUSH1 0x0 SWAP1 SLOAD SWAP1 PUSH2 0x100 EXP SWAP1 DIV PUSH20 0xFFFFFFFFFFFFFFFFFFFFFFFFFFFFFFFFFFFFFFFF AND SWAP1 POP DUP2 PUSH1 0x0 DUP1 PUSH2 0x100 EXP DUP2 SLOAD DUP2 PUSH20 0xFFFFFFFFFFFFFFFFFFFFFFFFFFFFFFFFFFFFFFFF MUL NOT AND SWAP1 DUP4 PUSH20 0xFFFFFFFFFFFFFFFFFFFFFFFFFFFFFFFFFFFFFFFF AND MUL OR SWAP1 SSTORE POP DUP2 PUSH20 0xFFFFFFFFFFFFFFFFFFFFFFFFFFFFFFFFFFFFFFFF AND DUP2 PUSH20 0xFFFFFFFFFFFFFFFFFFFFFFFFFFFFFFFFFFFFFFFF AND PUSH32 0x8BE0079C531659141344CD1FD0A4F28419497F9722A3DAAFE3B4186F6B6457E0 PUSH1 0x40 MLOAD PUSH1 0x40 MLOAD DUP1 SWAP2 SUB SWAP1 LOG3 POP POP JUMP JUMPDEST PUSH2 0x2C07 DUP1 PUSH3 0x114 PUSH1 0x0 CODECOPY PUSH1 0x0 RETURN INVALID PUSH1 0x80 PUSH1 0x40 MSTORE CALLVALUE DUP1 ISZERO PUSH2 0x10 JUMPI PUSH1 0x0 DUP1 REVERT JUMPDEST POP PUSH1 0x4 CALLDATASIZE LT PUSH2 0x9E JUMPI PUSH1 0x0 CALLDATALOAD PUSH1 0xE0 SHR DUP1 PUSH4 0x99342DE0 GT PUSH2 0x66 JUMPI DUP1 PUSH4 0x99342DE0 EQ PUSH2 0x135 JUMPI DUP1 PUSH4 0xD4F640AB EQ PUSH2 0x151 JUMPI DUP1 PUSH4 0xDE76B705 EQ PUSH2 0x184 JUMPI DUP1 PUSH4 0xEC85C31F EQ PUSH2 0x1A0 JUMPI DUP1 PUSH4 0xF2FDE38B EQ PUSH2 0x1BC JUMPI PUSH2 0x9E JUMP JUMPDEST DUP1 PUSH4 0x3185CC51 EQ PUSH2 0xA3 JUMPI DUP1 PUSH4 0x63EC6431 EQ PUSH2 0xBF JUMPI DUP1 PUSH4 0x715018A6 EQ PUSH2 0xF1 JUMPI DUP1 PUSH4 0x81257BD5 EQ PUSH2 0xFB JUMPI DUP1 PUSH4 0x8DA5CB5B EQ PUSH2 0x117 JUMPI JUMPDEST PUSH1 0x0 DUP1 REVERT JUMPDEST PUSH2 0xBD PUSH1 0x4 DUP1 CALLDATASIZE SUB DUP2 ADD SWAP1 PUSH2 0xB8 SWAP2 SWAP1 PUSH2 0x1684 JUMP JUMPDEST PUSH2 0x1D8 JUMP JUMPDEST STOP JUMPDEST PUSH2 0xD9 PUSH1 0x4 DUP1 CALLDATASIZE SUB DUP2 ADD SWAP1 PUSH2 0xD4 SWAP2 SWAP1 PUSH2 0x1703 JUMP JUMPDEST PUSH2 0x2B9 JUMP JUMPDEST PUSH1 0x40 MLOAD PUSH2 0xE8 SWAP4 SWAP3 SWAP2 SWAP1 PUSH2 0x19AA JUMP JUMPDEST PUSH1 0x40 MLOAD DUP1 SWAP2 SUB SWAP1 RETURN JUMPDEST PUSH2 0xF9 PUSH2 0x4A8 JUMP JUMPDEST STOP JUMPDEST PUSH2 0x115 PUSH1 0x4 DUP1 CALLDATASIZE SUB DUP2 ADD SWAP1 PUSH2 0x110 SWAP2 SWAP1 PUSH2 0x19E8 JUMP JUMPDEST PUSH2 0x530 JUMP JUMPDEST STOP JUMPDEST PUSH2 0x11F PUSH2 0x7D5 JUMP JUMPDEST PUSH1 0x40 MLOAD PUSH2 0x12C SWAP2 SWAP1 PUSH2 0x1A28 JUMP JUMPDEST PUSH1 0x40 MLOAD DUP1 SWAP2 SUB SWAP1 RETURN JUMPDEST PUSH2 0x14F PUSH1 0x4 DUP1 CALLDATASIZE SUB DUP2 ADD SWAP1 PUSH2 0x14A SWAP2 SWAP1 PUSH2 0x1703 JUMP JUMPDEST PUSH2 0x7FE JUMP JUMPDEST STOP JUMPDEST PUSH2 0x16B PUSH1 0x4 DUP1 CALLDATASIZE SUB DUP2 ADD SWAP1 PUSH2 0x166 SWAP2 SWAP1 PUSH2 0x1703 JUMP JUMPDEST PUSH2 0x95F JUMP JUMPDEST PUSH1 0x40 MLOAD PUSH2 0x17B SWAP5 SWAP4 SWAP3 SWAP2 SWAP1 PUSH2 0x1A52 JUMP JUMPDEST PUSH1 0x40 MLOAD DUP1 SWAP2 SUB SWAP1 RETURN JUMPDEST PUSH2 0x19E PUSH1 0x4 DUP1 CALLDATASIZE SUB DUP2 ADD SWAP1 PUSH2 0x199 SWAP2 SWAP1 PUSH2 0x1703 JUMP JUMPDEST PUSH2 0xB54 JUMP JUMPDEST STOP JUMPDEST PUSH2 0x1BA PUSH1 0x4 DUP1 CALLDATASIZE SUB DUP2 ADD SWAP1 PUSH2 0x1B5 SWAP2 SWAP1 PUSH2 0x1A9E JUMP JUMPDEST PUSH2 0xCB5 JUMP JUMPDEST STOP JUMPDEST PUSH2 0x1D6 PUSH1 0x4 DUP1 CALLDATASIZE SUB DUP2 ADD SWAP1 PUSH2 0x1D1 SWAP2 SWAP1 PUSH2 0x1B26 JUMP JUMPDEST PUSH2 0xDA1 JUMP JUMPDEST STOP JUMPDEST PUSH1 0x0 CALLER SWAP1 POP PUSH1 0x0 PUSH1 0x2 DUP1 SLOAD SWAP1 POP SWAP1 POP PUSH1 0x0 PUSH1 0x2 PUSH1 0x1 DUP2 PUSH1 0x1 DUP2 SLOAD ADD DUP1 DUP3 SSTORE DUP1 SWAP2 POP POP SUB SWAP1 PUSH1 0x0 MSTORE PUSH1 0x20 PUSH1 0x0 KECCAK256 SWAP1 PUSH1 0x4 MUL ADD SWAP1 POP DUP3 DUP2 PUSH1 0x0 ADD PUSH1 0x0 PUSH2 0x100 EXP DUP2 SLOAD DUP2 PUSH20 0xFFFFFFFFFFFFFFFFFFFFFFFFFFFFFFFFFFFFFFFF MUL NOT AND SWAP1 DUP4 PUSH20 0xFFFFFFFFFFFFFFFFFFFFFFFFFFFFFFFFFFFFFFFF AND MUL OR SWAP1 SSTORE POP PUSH1 0x1 DUP2 PUSH1 0x3 ADD PUSH1 0x0 PUSH2 0x100 EXP DUP2 SLOAD DUP2 PUSH1 0xFF MUL NOT AND SWAP1 DUP4 ISZERO ISZERO MUL OR SWAP1 SSTORE POP PUSH2 0x278 DUP2 PUSH1 0x1 ADD DUP6 PUSH2 0xE98 JUMP JUMPDEST PUSH32 0xB53532EBACEDF8B1C67BA597EE0B462C7135DC33B1EF81F9467838845F7137BF DUP3 DUP5 DUP7 PUSH1 0x40 MLOAD PUSH2 0x2AB SWAP4 SWAP3 SWAP2 SWAP1 PUSH2 0x1E5A JUMP JUMPDEST PUSH1 0x40 MLOAD DUP1 SWAP2 SUB SWAP1 LOG1 POP POP POP POP JUMP JUMPDEST PUSH1 0x2 DUP2 DUP2 SLOAD DUP2 LT PUSH2 0x2C9 JUMPI PUSH1 0x0 DUP1 REVERT JUMPDEST SWAP1 PUSH1 0x0 MSTORE PUSH1 0x20 PUSH1 0x0 KECCAK256 SWAP1 PUSH1 0x4 MUL ADD PUSH1 0x0 SWAP2 POP SWAP1 POP DUP1 PUSH1 0x0 ADD PUSH1 0x0 SWAP1 SLOAD SWAP1 PUSH2 0x100 EXP SWAP1 DIV PUSH20 0xFFFFFFFFFFFFFFFFFFFFFFFFFFFFFFFFFFFFFFFF AND SWAP1 DUP1 PUSH1 0x1 ADD PUSH1 0x40 MLOAD DUP1 PUSH1 0x40 ADD PUSH1 0x40 MSTORE SWAP1 DUP2 PUSH1 0x0 DUP3 ADD DUP1 SLOAD DUP1 PUSH1 0x20 MUL PUSH1 0x20 ADD PUSH1 0x40 MLOAD SWAP1 DUP2 ADD PUSH1 0x40 MSTORE DUP1 SWAP3 SWAP2 SWAP1 DUP2 DUP2 MSTORE PUSH1 0x20 ADD PUSH1 0x0 SWAP1 JUMPDEST DUP3 DUP3 LT ISZERO PUSH2 0x3C9 JUMPI DUP4 DUP3 SWAP1 PUSH1 0x0 MSTORE PUSH1 0x20 PUSH1 0x0 KECCAK256 SWAP1 PUSH1 0x2 MUL ADD PUSH1 0x40 MLOAD DUP1 PUSH1 0x40 ADD PUSH1 0x40 MSTORE SWAP1 DUP2 PUSH1 0x0 DUP3 ADD PUSH1 0x0 SWAP1 SLOAD SWAP1 PUSH2 0x100 EXP SWAP1 DIV PUSH20 0xFFFFFFFFFFFFFFFFFFFFFFFFFFFFFFFFFFFFFFFF AND PUSH20 0xFFFFFFFFFFFFFFFFFFFFFFFFFFFFFFFFFFFFFFFF AND PUSH20 0xFFFFFFFFFFFFFFFFFFFFFFFFFFFFFFFFFFFFFFFF AND DUP2 MSTORE PUSH1 0x20 ADD PUSH1 0x1 DUP3 ADD SLOAD DUP2 MSTORE POP POP DUP2 MSTORE PUSH1 0x20 ADD SWAP1 PUSH1 0x1 ADD SWAP1 PUSH2 0x337 JUMP JUMPDEST POP POP POP POP DUP2 MSTORE PUSH1 0x20 ADD PUSH1 0x1 DUP3 ADD DUP1 SLOAD DUP1 PUSH1 0x20 MUL PUSH1 0x20 ADD PUSH1 0x40 MLOAD SWAP1 DUP2 ADD PUSH1 0x40 MSTORE DUP1 SWAP3 SWAP2 SWAP1 DUP2 DUP2 MSTORE PUSH1 0x20 ADD PUSH1 0x0 SWAP1 JUMPDEST DUP3 DUP3 LT ISZERO PUSH2 0x488 JUMPI DUP4 DUP3 SWAP1 PUSH1 0x0 MSTORE PUSH1 0x20 PUSH1 0x0 KECCAK256 SWAP1 PUSH1 0x2 MUL ADD PUSH1 0x40 MLOAD DUP1 PUSH1 0x40 ADD PUSH1 0x40 MSTORE SWAP1 DUP2 PUSH1 0x0 DUP3 ADD PUSH1 0x0 SWAP1 SLOAD SWAP1 PUSH2 0x100 EXP SWAP1 DIV PUSH20 0xFFFFFFFFFFFFFFFFFFFFFFFFFFFFFFFFFFFFFFFF AND PUSH20 0xFFFFFFFFFFFFFFFFFFFFFFFFFFFFFFFFFFFFFFFF AND PUSH20 0xFFFFFFFFFFFFFFFFFFFFFFFFFFFFFFFFFFFFFFFF AND DUP2 MSTORE PUSH1 0x20 ADD PUSH1 0x1 DUP3 ADD SLOAD DUP2 MSTORE POP POP DUP2 MSTORE PUSH1 0x20 ADD SWAP1 PUSH1 0x1 ADD SWAP1 PUSH2 0x3F6 JUMP JUMPDEST POP POP POP POP DUP2 MSTORE POP POP SWAP1 DUP1 PUSH1 0x3 ADD PUSH1 0x0 SWAP1 SLOAD SWAP1 PUSH2 0x100 EXP SWAP1 DIV PUSH1 0xFF AND SWAP1 POP DUP4 JUMP JUMPDEST PUSH2 0x4B0 PUSH2 0xFC0 JUMP JUMPDEST PUSH20 0xFFFFFFFFFFFFFFFFFFFFFFFFFFFFFFFFFFFFFFFF AND PUSH2 0x4CE PUSH2 0x7D5 JUMP JUMPDEST PUSH20 0xFFFFFFFFFFFFFFFFFFFFFFFFFFFFFFFFFFFFFFFF AND EQ PUSH2 0x524 JUMPI PUSH1 0x40 MLOAD PUSH32 0x8C379A000000000000000000000000000000000000000000000000000000000 DUP2 MSTORE PUSH1 0x4 ADD PUSH2 0x51B SWAP1 PUSH2 0x1EF5 JUMP JUMPDEST PUSH1 0x40 MLOAD DUP1 SWAP2 SUB SWAP1 REVERT JUMPDEST PUSH2 0x52E PUSH1 0x0 PUSH2 0xFC8 JUMP JUMPDEST JUMP JUMPDEST PUSH1 0x0 PUSH1 0x2 DUP4 DUP2 SLOAD DUP2 LT PUSH2 0x546 JUMPI PUSH2 0x545 PUSH2 0x1F15 JUMP JUMPDEST JUMPDEST SWAP1 PUSH1 0x0 MSTORE PUSH1 0x20 PUSH1 0x0 KECCAK256 SWAP1 PUSH1 0x4 MUL ADD SWAP1 POP DUP1 PUSH1 0x0 ADD PUSH1 0x0 SWAP1 SLOAD SWAP1 PUSH2 0x100 EXP SWAP1 DIV PUSH20 0xFFFFFFFFFFFFFFFFFFFFFFFFFFFFFFFFFFFFFFFF AND PUSH20 0xFFFFFFFFFFFFFFFFFFFFFFFFFFFFFFFFFFFFFFFF AND CALLER PUSH20 0xFFFFFFFFFFFFFFFFFFFFFFFFFFFFFFFFFFFFFFFF AND EQ PUSH2 0x5E8 JUMPI PUSH1 0x40 MLOAD PUSH32 0x8C379A000000000000000000000000000000000000000000000000000000000 DUP2 MSTORE PUSH1 0x4 ADD PUSH2 0x5DF SWAP1 PUSH2 0x1FB6 JUMP JUMPDEST PUSH1 0x40 MLOAD DUP1 SWAP2 SUB SWAP1 REVERT JUMPDEST DUP1 PUSH1 0x3 ADD PUSH1 0x0 SWAP1 SLOAD SWAP1 PUSH2 0x100 EXP SWAP1 DIV PUSH1 0xFF AND PUSH2 0x639 JUMPI PUSH1 0x40 MLOAD PUSH32 0x8C379A000000000000000000000000000000000000000000000000000000000 DUP2 MSTORE PUSH1 0x4 ADD PUSH2 0x630 SWAP1 PUSH2 0x2022 JUMP JUMPDEST PUSH1 0x40 MLOAD DUP1 SWAP2 SUB SWAP1 REVERT JUMPDEST PUSH1 0x0 DUP2 PUSH1 0x3 ADD PUSH1 0x0 PUSH2 0x100 EXP DUP2 SLOAD DUP2 PUSH1 0xFF MUL NOT AND SWAP1 DUP4 ISZERO ISZERO MUL OR SWAP1 SSTORE POP PUSH1 0x0 PUSH1 0x1 DUP4 DUP2 SLOAD DUP2 LT PUSH2 0x66C JUMPI PUSH2 0x66B PUSH2 0x1F15 JUMP JUMPDEST JUMPDEST SWAP1 PUSH1 0x0 MSTORE PUSH1 0x20 PUSH1 0x0 KECCAK256 SWAP1 PUSH1 0x5 MUL ADD SWAP1 POP DUP1 PUSH1 0x4 ADD PUSH1 0x0 SWAP1 SLOAD SWAP1 PUSH2 0x100 EXP SWAP1 DIV PUSH1 0xFF AND PUSH2 0x6CD JUMPI PUSH1 0x40 MLOAD PUSH32 0x8C379A000000000000000000000000000000000000000000000000000000000 DUP2 MSTORE PUSH1 0x4 ADD PUSH2 0x6C4 SWAP1 PUSH2 0x208E JUMP JUMPDEST PUSH1 0x40 MLOAD DUP1 SWAP2 SUB SWAP1 REVERT JUMPDEST PUSH1 0x0 DUP2 PUSH1 0x4 ADD PUSH1 0x0 PUSH2 0x100 EXP DUP2 SLOAD DUP2 PUSH1 0xFF MUL NOT AND SWAP1 DUP4 ISZERO ISZERO MUL OR SWAP1 SSTORE POP PUSH2 0x740 DUP3 PUSH1 0x0 ADD PUSH1 0x0 SWAP1 SLOAD SWAP1 PUSH2 0x100 EXP SWAP1 DIV PUSH20 0xFFFFFFFFFFFFFFFFFFFFFFFFFFFFFFFFFFFFFFFF AND DUP3 PUSH1 0x0 ADD PUSH1 0x0 SWAP1 SLOAD SWAP1 PUSH2 0x100 EXP SWAP1 DIV PUSH20 0xFFFFFFFFFFFFFFFFFFFFFFFFFFFFFFFFFFFFFFFF AND DUP5 PUSH1 0x1 ADD PUSH2 0x108C JUMP JUMPDEST PUSH2 0x796 DUP2 PUSH1 0x0 ADD PUSH1 0x0 SWAP1 SLOAD SWAP1 PUSH2 0x100 EXP SWAP1 DIV PUSH20 0xFFFFFFFFFFFFFFFFFFFFFFFFFFFFFFFFFFFFFFFF AND DUP4 PUSH1 0x0 ADD PUSH1 0x0 SWAP1 SLOAD SWAP1 PUSH2 0x100 EXP SWAP1 DIV PUSH20 0xFFFFFFFFFFFFFFFFFFFFFFFFFFFFFFFFFFFFFFFF AND DUP4 PUSH1 0x2 ADD PUSH2 0x108C JUMP JUMPDEST PUSH32 0x397F87B3946767B09967764D50032941DE13A2606BCB39DFED61D7B1ED0192CC DUP5 DUP5 PUSH1 0x40 MLOAD PUSH2 0x7C7 SWAP3 SWAP2 SWAP1 PUSH2 0x20AE JUMP JUMPDEST PUSH1 0x40 MLOAD DUP1 SWAP2 SUB SWAP1 LOG1 POP POP POP POP JUMP JUMPDEST PUSH1 0x0 DUP1 PUSH1 0x0 SWAP1 SLOAD SWAP1 PUSH2 0x100 EXP SWAP1 DIV PUSH20 0xFFFFFFFFFFFFFFFFFFFFFFFFFFFFFFFFFFFFFFFF AND SWAP1 POP SWAP1 JUMP JUMPDEST PUSH1 0x0 PUSH1 0x2 DUP3 DUP2 SLOAD DUP2 LT PUSH2 0x814 JUMPI PUSH2 0x813 PUSH2 0x1F15 JUMP JUMPDEST JUMPDEST SWAP1 PUSH1 0x0 MSTORE PUSH1 0x20 PUSH1 0x0 KECCAK256 SWAP1 PUSH1 0x4 MUL ADD SWAP1 POP DUP1 PUSH1 0x0 ADD PUSH1 0x0 SWAP1 SLOAD SWAP1 PUSH2 0x100 EXP SWAP1 DIV PUSH20 0xFFFFFFFFFFFFFFFFFFFFFFFFFFFFFFFFFFFFFFFF AND PUSH20 0xFFFFFFFFFFFFFFFFFFFFFFFFFFFFFFFFFFFFFFFF AND CALLER PUSH20 0xFFFFFFFFFFFFFFFFFFFFFFFFFFFFFFFFFFFFFFFF AND EQ PUSH2 0x8B6 JUMPI PUSH1 0x40 MLOAD PUSH32 0x8C379A000000000000000000000000000000000000000000000000000000000 DUP2 MSTORE PUSH1 0x4 ADD PUSH2 0x8AD SWAP1 PUSH2 0x2149 JUMP JUMPDEST PUSH1 0x40 MLOAD DUP1 SWAP2 SUB SWAP1 REVERT JUMPDEST DUP1 PUSH1 0x3 ADD PUSH1 0x0 SWAP1 SLOAD SWAP1 PUSH2 0x100 EXP SWAP1 DIV PUSH1 0xFF AND PUSH2 0x907 JUMPI PUSH1 0x40 MLOAD PUSH32 0x8C379A000000000000000000000000000000000000000000000000000000000 DUP2 MSTORE PUSH1 0x4 ADD PUSH2 0x8FE SWAP1 PUSH2 0x21DB JUMP JUMPDEST PUSH1 0x40 MLOAD DUP1 SWAP2 SUB SWAP1 REVERT JUMPDEST PUSH1 0x0 DUP2 PUSH1 0x3 ADD PUSH1 0x0 PUSH2 0x100 EXP DUP2 SLOAD DUP2 PUSH1 0xFF MUL NOT AND SWAP1 DUP4 ISZERO ISZERO MUL OR SWAP1 SSTORE POP PUSH32 0x18BE31C8ADA4C507090CA68B2399F6F1AA8490307119AF9AF60BBC93ED8D5A77 DUP3 PUSH1 0x40 MLOAD PUSH2 0x953 SWAP2 SWAP1 PUSH2 0x21FB JUMP JUMPDEST PUSH1 0x40 MLOAD DUP1 SWAP2 SUB SWAP1 LOG1 POP POP JUMP JUMPDEST PUSH1 0x1 DUP2 DUP2 SLOAD DUP2 LT PUSH2 0x96F JUMPI PUSH1 0x0 DUP1 REVERT JUMPDEST SWAP1 PUSH1 0x0 MSTORE PUSH1 0x20 PUSH1 0x0 KECCAK256 SWAP1 PUSH1 0x5 MUL ADD PUSH1 0x0 SWAP2 POP SWAP1 POP DUP1 PUSH1 0x0 ADD PUSH1 0x0 SWAP1 SLOAD SWAP1 PUSH2 0x100 EXP SWAP1 DIV PUSH20 0xFFFFFFFFFFFFFFFFFFFFFFFFFFFFFFFFFFFFFFFF AND SWAP1 DUP1 PUSH1 0x1 ADD SLOAD SWAP1 DUP1 PUSH1 0x2 ADD PUSH1 0x40 MLOAD DUP1 PUSH1 0x40 ADD PUSH1 0x40 MSTORE SWAP1 DUP2 PUSH1 0x0 DUP3 ADD DUP1 SLOAD DUP1 PUSH1 0x20 MUL PUSH1 0x20 ADD PUSH1 0x40 MLOAD SWAP1 DUP2 ADD PUSH1 0x40 MSTORE DUP1 SWAP3 SWAP2 SWAP1 DUP2 DUP2 MSTORE PUSH1 0x20 ADD PUSH1 0x0 SWAP1 JUMPDEST DUP3 DUP3 LT ISZERO PUSH2 0xA75 JUMPI DUP4 DUP3 SWAP1 PUSH1 0x0 MSTORE PUSH1 0x20 PUSH1 0x0 KECCAK256 SWAP1 PUSH1 0x2 MUL ADD PUSH1 0x40 MLOAD DUP1 PUSH1 0x40 ADD PUSH1 0x40 MSTORE SWAP1 DUP2 PUSH1 0x0 DUP3 ADD PUSH1 0x0 SWAP1 SLOAD SWAP1 PUSH2 0x100 EXP SWAP1 DIV PUSH20 0xFFFFFFFFFFFFFFFFFFFFFFFFFFFFFFFFFFFFFFFF AND PUSH20 0xFFFFFFFFFFFFFFFFFFFFFFFFFFFFFFFFFFFFFFFF AND PUSH20 0xFFFFFFFFFFFFFFFFFFFFFFFFFFFFFFFFFFFFFFFF AND DUP2 MSTORE PUSH1 0x20 ADD PUSH1 0x1 DUP3 ADD SLOAD DUP2 MSTORE POP POP DUP2 MSTORE PUSH1 0x20 ADD SWAP1 PUSH1 0x1 ADD SWAP1 PUSH2 0x9E3 JUMP JUMPDEST POP POP POP POP DUP2 MSTORE PUSH1 0x20 ADD PUSH1 0x1 DUP3 ADD DUP1 SLOAD DUP1 PUSH1 0x20 MUL PUSH1 0x20 ADD PUSH1 0x40 MLOAD SWAP1 DUP2 ADD PUSH1 0x40 MSTORE DUP1 SWAP3 SWAP2 SWAP1 DUP2 DUP2 MSTORE PUSH1 0x20 ADD PUSH1 0x0 SWAP1 JUMPDEST DUP3 DUP3 LT ISZERO PUSH2 0xB34 JUMPI DUP4 DUP3 SWAP1 PUSH1 0x0 MSTORE PUSH1 0x20 PUSH1 0x0 KECCAK256 SWAP1 PUSH1 0x2 MUL ADD PUSH1 0x40 MLOAD DUP1 PUSH1 0x40 ADD PUSH1 0x40 MSTORE SWAP1 DUP2 PUSH1 0x0 DUP3 ADD PUSH1 0x0 SWAP1 SLOAD SWAP1 PUSH2 0x100 EXP SWAP1 DIV PUSH20 0xFFFFFFFFFFFFFFFFFFFFFFFFFFFFFFFFFFFFFFFF AND PUSH20 0xFFFFFFFFFFFFFFFFFFFFFFFFFFFFFFFFFFFFFFFF AND PUSH20 0xFFFFFFFFFFFFFFFFFFFFFFFFFFFFFFFFFFFFFFFF AND DUP2 MSTORE PUSH1 0x20 ADD PUSH1 0x1 DUP3 ADD SLOAD DUP2 MSTORE POP POP DUP2 MSTORE PUSH1 0x20 ADD SWAP1 PUSH1 0x1 ADD SWAP1 PUSH2 0xAA2 JUMP JUMPDEST POP POP POP POP DUP2 MSTORE POP POP SWAP1 DUP1 PUSH1 0x4 ADD PUSH1 0x0 SWAP1 SLOAD SWAP1 PUSH2 0x100 EXP SWAP1 DIV PUSH1 0xFF AND SWAP1 POP DUP5 JUMP JUMPDEST PUSH1 0x0 PUSH1 0x1 DUP3 DUP2 SLOAD DUP2 LT PUSH2 0xB6A JUMPI PUSH2 0xB69 PUSH2 0x1F15 JUMP JUMPDEST JUMPDEST SWAP1 PUSH1 0x0 MSTORE PUSH1 0x20 PUSH1 0x0 KECCAK256 SWAP1 PUSH1 0x5 MUL ADD SWAP1 POP DUP1 PUSH1 0x0 ADD PUSH1 0x0 SWAP1 SLOAD SWAP1 PUSH2 0x100 EXP SWAP1 DIV PUSH20 0xFFFFFFFFFFFFFFFFFFFFFFFFFFFFFFFFFFFFFFFF AND PUSH20 0xFFFFFFFFFFFFFFFFFFFFFFFFFFFFFFFFFFFFFFFF AND CALLER PUSH20 0xFFFFFFFFFFFFFFFFFFFFFFFFFFFFFFFFFFFFFFFF AND EQ PUSH2 0xC0C JUMPI PUSH1 0x40 MLOAD PUSH32 0x8C379A000000000000000000000000000000000000000000000000000000000 DUP2 MSTORE PUSH1 0x4 ADD PUSH2 0xC03 SWAP1 PUSH2 0x2288 JUMP JUMPDEST PUSH1 0x40 MLOAD DUP1 SWAP2 SUB SWAP1 REVERT JUMPDEST DUP1 PUSH1 0x4 ADD PUSH1 0x0 SWAP1 SLOAD SWAP1 PUSH2 0x100 EXP SWAP1 DIV PUSH1 0xFF AND PUSH2 0xC5D JUMPI PUSH1 0x40 MLOAD PUSH32 0x8C379A000000000000000000000000000000000000000000000000000000000 DUP2 MSTORE PUSH1 0x4 ADD PUSH2 0xC54 SWAP1 PUSH2 0x231A JUMP JUMPDEST PUSH1 0x40 MLOAD DUP1 SWAP2 SUB SWAP1 REVERT JUMPDEST PUSH1 0x0 DUP2 PUSH1 0x4 ADD PUSH1 0x0 PUSH2 0x100 EXP DUP2 SLOAD DUP2 PUSH1 0xFF MUL NOT AND SWAP1 DUP4 ISZERO ISZERO MUL OR SWAP1 SSTORE POP PUSH32 0x8049DD3F56E987A57AED49112084F86C2D92860417ECE91B7570694BA3D65BD8 DUP3 PUSH1 0x40 MLOAD PUSH2 0xCA9 SWAP2 SWAP1 PUSH2 0x21FB JUMP JUMPDEST PUSH1 0x40 MLOAD DUP1 SWAP2 SUB SWAP1 LOG1 POP POP JUMP JUMPDEST PUSH1 0x0 CALLER SWAP1 POP PUSH1 0x0 PUSH1 0x1 DUP1 SLOAD SWAP1 POP SWAP1 POP PUSH1 0x0 PUSH1 0x1 DUP1 DUP2 PUSH1 0x1 DUP2 SLOAD ADD DUP1 DUP3 SSTORE DUP1 SWAP2 POP POP SUB SWAP1 PUSH1 0x0 MSTORE PUSH1 0x20 PUSH1 0x0 KECCAK256 SWAP1 PUSH1 0x5 MUL ADD SWAP1 POP DUP3 DUP2 PUSH1 0x0 ADD PUSH1 0x0 PUSH2 0x100 EXP DUP2 SLOAD DUP2 PUSH20 0xFFFFFFFFFFFFFFFFFFFFFFFFFFFFFFFFFFFFFFFF MUL NOT AND SWAP1 DUP4 PUSH20 0xFFFFFFFFFFFFFFFFFFFFFFFFFFFFFFFFFFFFFFFF AND MUL OR SWAP1 SSTORE POP PUSH1 0x1 DUP2 PUSH1 0x4 ADD PUSH1 0x0 PUSH2 0x100 EXP DUP2 SLOAD DUP2 PUSH1 0xFF MUL NOT AND SWAP1 DUP4 ISZERO ISZERO MUL OR SWAP1 SSTORE POP DUP5 DUP2 PUSH1 0x1 ADD DUP2 SWAP1 SSTORE POP PUSH2 0xD5D DUP2 PUSH1 0x2 ADD DUP6 PUSH2 0xE98 JUMP JUMPDEST PUSH32 0x41E1878D8E6F8EBCDD08214424689A2D523AE489E437CFA35ECF14CEC1230347 DUP6 DUP4 DUP6 DUP8 PUSH1 0x40 MLOAD PUSH2 0xD92 SWAP5 SWAP4 SWAP3 SWAP2 SWAP1 PUSH2 0x233A JUMP JUMPDEST PUSH1 0x40 MLOAD DUP1 SWAP2 SUB SWAP1 LOG1 POP POP POP POP POP JUMP JUMPDEST PUSH2 0xDA9 PUSH2 0xFC0 JUMP JUMPDEST PUSH20 0xFFFFFFFFFFFFFFFFFFFFFFFFFFFFFFFFFFFFFFFF AND PUSH2 0xDC7 PUSH2 0x7D5 JUMP JUMPDEST PUSH20 0xFFFFFFFFFFFFFFFFFFFFFFFFFFFFFFFFFFFFFFFF AND EQ PUSH2 0xE1D JUMPI PUSH1 0x40 MLOAD PUSH32 0x8C379A000000000000000000000000000000000000000000000000000000000 DUP2 MSTORE PUSH1 0x4 ADD PUSH2 0xE14 SWAP1 PUSH2 0x1EF5 JUMP JUMPDEST PUSH1 0x40 MLOAD DUP1 SWAP2 SUB SWAP1 REVERT JUMPDEST PUSH1 0x0 PUSH20 0xFFFFFFFFFFFFFFFFFFFFFFFFFFFFFFFFFFFFFFFF AND DUP2 PUSH20 0xFFFFFFFFFFFFFFFFFFFFFFFFFFFFFFFFFFFFFFFF AND SUB PUSH2 0xE8C JUMPI PUSH1 0x40 MLOAD PUSH32 0x8C379A000000000000000000000000000000000000000000000000000000000 DUP2 MSTORE PUSH1 0x4 ADD PUSH2 0xE83 SWAP1 PUSH2 0x23F8 JUMP JUMPDEST PUSH1 0x40 MLOAD DUP1 SWAP2 SUB SWAP1 REVERT JUMPDEST PUSH2 0xE95 DUP2 PUSH2 0xFC8 JUMP JUMPDEST POP JUMP JUMPDEST PUSH1 0x0 JUMPDEST DUP2 DUP1 PUSH1 0x0 ADD SWAP1 PUSH2 0xEAB SWAP2 SWAP1 PUSH2 0x2427 JUMP JUMPDEST SWAP1 POP DUP2 LT ISZERO PUSH2 0xF29 JUMPI DUP3 PUSH1 0x0 ADD DUP3 DUP1 PUSH1 0x0 ADD SWAP1 PUSH2 0xEC8 SWAP2 SWAP1 PUSH2 0x2427 JUMP JUMPDEST DUP4 DUP2 DUP2 LT PUSH2 0xED9 JUMPI PUSH2 0xED8 PUSH2 0x1F15 JUMP JUMPDEST JUMPDEST SWAP1 POP PUSH1 0x40 MUL ADD SWAP1 DUP1 PUSH1 0x1 DUP2 SLOAD ADD DUP1 DUP3 SSTORE DUP1 SWAP2 POP POP PUSH1 0x1 SWAP1 SUB SWAP1 PUSH1 0x0 MSTORE PUSH1 0x20 PUSH1 0x0 KECCAK256 SWAP1 PUSH1 0x2 MUL ADD PUSH1 0x0 SWAP1 SWAP2 SWAP1 SWAP2 SWAP1 SWAP2 POP DUP2 DUP2 PUSH2 0xF14 SWAP2 SWAP1 PUSH2 0x264D JUMP JUMPDEST POP POP DUP1 DUP1 PUSH2 0xF21 SWAP1 PUSH2 0x268A JUMP JUMPDEST SWAP2 POP POP PUSH2 0xE9B JUMP JUMPDEST POP PUSH1 0x0 JUMPDEST DUP2 DUP1 PUSH1 0x20 ADD SWAP1 PUSH2 0xF3D SWAP2 SWAP1 PUSH2 0x26D2 JUMP JUMPDEST SWAP1 POP DUP2 LT ISZERO PUSH2 0xFBB JUMPI DUP3 PUSH1 0x1 ADD DUP3 DUP1 PUSH1 0x20 ADD SWAP1 PUSH2 0xF5A SWAP2 SWAP1 PUSH2 0x26D2 JUMP JUMPDEST DUP4 DUP2 DUP2 LT PUSH2 0xF6B JUMPI PUSH2 0xF6A PUSH2 0x1F15 JUMP JUMPDEST JUMPDEST SWAP1 POP PUSH1 0x40 MUL ADD SWAP1 DUP1 PUSH1 0x1 DUP2 SLOAD ADD DUP1 DUP3 SSTORE DUP1 SWAP2 POP POP PUSH1 0x1 SWAP1 SUB SWAP1 PUSH1 0x0 MSTORE PUSH1 0x20 PUSH1 0x0 KECCAK256 SWAP1 PUSH1 0x2 MUL ADD PUSH1 0x0 SWAP1 SWAP2 SWAP1 SWAP2 SWAP1 SWAP2 POP DUP2 DUP2 PUSH2 0xFA6 SWAP2 SWAP1 PUSH2 0x277B JUMP JUMPDEST POP POP DUP1 DUP1 PUSH2 0xFB3 SWAP1 PUSH2 0x268A JUMP JUMPDEST SWAP2 POP POP PUSH2 0xF2D JUMP JUMPDEST POP POP POP JUMP JUMPDEST PUSH1 0x0 CALLER SWAP1 POP SWAP1 JUMP JUMPDEST PUSH1 0x0 DUP1 PUSH1 0x0 SWAP1 SLOAD SWAP1 PUSH2 0x100 EXP SWAP1 DIV PUSH20 0xFFFFFFFFFFFFFFFFFFFFFFFFFFFFFFFFFFFFFFFF AND SWAP1 POP DUP2 PUSH1 0x0 DUP1 PUSH2 0x100 EXP DUP2 SLOAD DUP2 PUSH20 0xFFFFFFFFFFFFFFFFFFFFFFFFFFFFFFFFFFFFFFFF MUL NOT AND SWAP1 DUP4 PUSH20 0xFFFFFFFFFFFFFFFFFFFFFFFFFFFFFFFFFFFFFFFF AND MUL OR SWAP1 SSTORE POP DUP2 PUSH20 0xFFFFFFFFFFFFFFFFFFFFFFFFFFFFFFFFFFFFFFFF AND DUP2 PUSH20 0xFFFFFFFFFFFFFFFFFFFFFFFFFFFFFFFFFFFFFFFF AND PUSH32 0x8BE0079C531659141344CD1FD0A4F28419497F9722A3DAAFE3B4186F6B6457E0 PUSH1 0x40 MLOAD PUSH1 0x40 MLOAD DUP1 SWAP2 SUB SWAP1 LOG3 POP POP JUMP JUMPDEST PUSH1 0x0 DUP2 PUSH1 0x0 ADD SWAP1 POP PUSH1 0x0 DUP3 PUSH1 0x1 ADD SWAP1 POP PUSH1 0x0 JUMPDEST DUP3 DUP1 SLOAD SWAP1 POP DUP2 LT ISZERO PUSH2 0x1118 JUMPI PUSH1 0x0 DUP4 DUP3 DUP2 SLOAD DUP2 LT PUSH2 0x10C0 JUMPI PUSH2 0x10BF PUSH2 0x1F15 JUMP JUMPDEST JUMPDEST SWAP1 PUSH1 0x0 MSTORE PUSH1 0x20 PUSH1 0x0 KECCAK256 SWAP1 PUSH1 0x2 MUL ADD SWAP1 POP PUSH2 0x1104 DUP2 PUSH1 0x0 ADD PUSH1 0x0 SWAP1 SLOAD SWAP1 PUSH2 0x100 EXP SWAP1 DIV PUSH20 0xFFFFFFFFFFFFFFFFFFFFFFFFFFFFFFFFFFFFFFFF AND DUP9 DUP9 DUP5 PUSH1 0x1 ADD SLOAD PUSH2 0x11BE JUMP JUMPDEST POP DUP1 DUP1 PUSH2 0x1110 SWAP1 PUSH2 0x268A JUMP JUMPDEST SWAP2 POP POP PUSH2 0x109F JUMP JUMPDEST POP PUSH1 0x0 JUMPDEST DUP2 DUP1 SLOAD SWAP1 POP DUP2 LT ISZERO PUSH2 0x11B6 JUMPI PUSH1 0x0 DUP3 DUP3 DUP2 SLOAD DUP2 LT PUSH2 0x113D JUMPI PUSH2 0x113C PUSH2 0x1F15 JUMP JUMPDEST JUMPDEST SWAP1 PUSH1 0x0 MSTORE PUSH1 0x20 PUSH1 0x0 KECCAK256 SWAP1 PUSH1 0x2 MUL ADD SWAP1 POP PUSH2 0x11A2 DUP8 DUP8 DUP4 PUSH1 0x1 ADD SLOAD DUP5 PUSH1 0x0 ADD PUSH1 0x0 SWAP1 SLOAD SWAP1 PUSH2 0x100 EXP SWAP1 DIV PUSH20 0xFFFFFFFFFFFFFFFFFFFFFFFFFFFFFFFFFFFFFFFF AND PUSH20 0xFFFFFFFFFFFFFFFFFFFFFFFFFFFFFFFFFFFFFFFF AND PUSH2 0x1350 SWAP1 SWAP4 SWAP3 SWAP2 SWAP1 PUSH4 0xFFFFFFFF AND JUMP JUMPDEST POP DUP1 DUP1 PUSH2 0x11AE SWAP1 PUSH2 0x268A JUMP JUMPDEST SWAP2 POP POP PUSH2 0x111C JUMP JUMPDEST POP POP POP POP POP POP JUMP JUMPDEST PUSH1 0x0 DUP5 PUSH20 0xFFFFFFFFFFFFFFFFFFFFFFFFFFFFFFFFFFFFFFFF AND PUSH4 0x1FFC9A7 PUSH32 0x80AC58CD00000000000000000000000000000000000000000000000000000000 PUSH1 0x40 MLOAD DUP3 PUSH4 0xFFFFFFFF AND PUSH1 0xE0 SHL DUP2 MSTORE PUSH1 0x4 ADD PUSH2 0x1219 SWAP2 SWAP1 PUSH2 0x27C4 JUMP JUMPDEST PUSH1 0x20 PUSH1 0x40 MLOAD DUP1 DUP4 SUB DUP2 DUP7 GAS STATICCALL ISZERO DUP1 ISZERO PUSH2 0x1236 JUMPI RETURNDATASIZE PUSH1 0x0 DUP1 RETURNDATACOPY RETURNDATASIZE PUSH1 0x0 REVERT JUMPDEST POP POP POP POP PUSH1 0x40 MLOAD RETURNDATASIZE PUSH1 0x1F NOT PUSH1 0x1F DUP3 ADD AND DUP3 ADD DUP1 PUSH1 0x40 MSTORE POP DUP2 ADD SWAP1 PUSH2 0x125A SWAP2 SWAP1 PUSH2 0x280B JUMP JUMPDEST SWAP1 POP DUP1 ISZERO PUSH2 0x12D6 JUMPI DUP5 PUSH20 0xFFFFFFFFFFFFFFFFFFFFFFFFFFFFFFFFFFFFFFFF AND PUSH4 0x42842E0E DUP6 DUP6 DUP6 PUSH1 0x40 MLOAD DUP5 PUSH4 0xFFFFFFFF AND PUSH1 0xE0 SHL DUP2 MSTORE PUSH1 0x4 ADD PUSH2 0x129F SWAP4 SWAP3 SWAP2 SWAP1 PUSH2 0x2838 JUMP JUMPDEST PUSH1 0x0 PUSH1 0x40 MLOAD DUP1 DUP4 SUB DUP2 PUSH1 0x0 DUP8 DUP1 EXTCODESIZE ISZERO DUP1 ISZERO PUSH2 0x12B9 JUMPI PUSH1 0x0 DUP1 REVERT JUMPDEST POP GAS CALL ISZERO DUP1 ISZERO PUSH2 0x12CD JUMPI RETURNDATASIZE PUSH1 0x0 DUP1 RETURNDATACOPY RETURNDATASIZE PUSH1 0x0 REVERT JUMPDEST POP POP POP POP PUSH2 0x1349 JUMP JUMPDEST DUP5 PUSH20 0xFFFFFFFFFFFFFFFFFFFFFFFFFFFFFFFFFFFFFFFF AND PUSH4 0xF242432A DUP6 DUP6 DUP6 PUSH1 0x1 PUSH1 0x40 MLOAD DUP6 PUSH4 0xFFFFFFFF AND PUSH1 0xE0 SHL DUP2 MSTORE PUSH1 0x4 ADD PUSH2 0x1316 SWAP5 SWAP4 SWAP3 SWAP2 SWAP1 PUSH2 0x28E1 JUMP JUMPDEST PUSH1 0x0 PUSH1 0x40 MLOAD DUP1 DUP4 SUB DUP2 PUSH1 0x0 DUP8 DUP1 EXTCODESIZE ISZERO DUP1 ISZERO PUSH2 0x1330 JUMPI PUSH1 0x0 DUP1 REVERT JUMPDEST POP GAS CALL ISZERO DUP1 ISZERO PUSH2 0x1344 JUMPI RETURNDATASIZE PUSH1 0x0 DUP1 RETURNDATACOPY RETURNDATASIZE PUSH1 0x0 REVERT JUMPDEST POP POP POP POP JUMPDEST POP POP POP POP POP JUMP JUMPDEST PUSH2 0x13D3 DUP5 PUSH4 0x23B872DD PUSH1 0xE0 SHL DUP6 DUP6 DUP6 PUSH1 0x40 MLOAD PUSH1 0x24 ADD PUSH2 0x1371 SWAP4 SWAP3 SWAP2 SWAP1 PUSH2 0x2838 JUMP JUMPDEST PUSH1 0x40 MLOAD PUSH1 0x20 DUP2 DUP4 SUB SUB DUP2 MSTORE SWAP1 PUSH1 0x40 MSTORE SWAP1 PUSH28 0xFFFFFFFFFFFFFFFFFFFFFFFFFFFFFFFFFFFFFFFFFFFFFFFFFFFFFFFF NOT AND PUSH1 0x20 DUP3 ADD DUP1 MLOAD PUSH28 0xFFFFFFFFFFFFFFFFFFFFFFFFFFFFFFFFFFFFFFFFFFFFFFFFFFFFFFFF DUP4 DUP2 DUP4 AND OR DUP4 MSTORE POP POP POP POP PUSH2 0x13D9 JUMP JUMPDEST POP POP POP POP JUMP JUMPDEST PUSH1 0x0 PUSH2 0x143B DUP3 PUSH1 0x40 MLOAD DUP1 PUSH1 0x40 ADD PUSH1 0x40 MSTORE DUP1 PUSH1 0x20 DUP2 MSTORE PUSH1 0x20 ADD PUSH32 0x5361666545524332303A206C6F772D6C6576656C2063616C6C206661696C6564 DUP2 MSTORE POP DUP6 PUSH20 0xFFFFFFFFFFFFFFFFFFFFFFFFFFFFFFFFFFFFFFFF AND PUSH2 0x14A0 SWAP1 SWAP3 SWAP2 SWAP1 PUSH4 0xFFFFFFFF AND JUMP JUMPDEST SWAP1 POP PUSH1 0x0 DUP2 MLOAD GT ISZERO PUSH2 0x149B JUMPI DUP1 DUP1 PUSH1 0x20 ADD SWAP1 MLOAD DUP2 ADD SWAP1 PUSH2 0x145B SWAP2 SWAP1 PUSH2 0x280B JUMP JUMPDEST PUSH2 0x149A JUMPI PUSH1 0x40 MLOAD PUSH32 0x8C379A000000000000000000000000000000000000000000000000000000000 DUP2 MSTORE PUSH1 0x4 ADD PUSH2 0x1491 SWAP1 PUSH2 0x29AB JUMP JUMPDEST PUSH1 0x40 MLOAD DUP1 SWAP2 SUB SWAP1 REVERT JUMPDEST JUMPDEST POP POP POP JUMP JUMPDEST PUSH1 0x60 PUSH2 0x14AF DUP5 DUP5 PUSH1 0x0 DUP6 PUSH2 0x14B8 JUMP JUMPDEST SWAP1 POP SWAP4 SWAP3 POP POP POP JUMP JUMPDEST PUSH1 0x60 DUP3 SELFBALANCE LT ISZERO PUSH2 0x14FD JUMPI PUSH1 0x40 MLOAD PUSH32 0x8C379A000000000000000000000000000000000000000000000000000000000 DUP2 MSTORE PUSH1 0x4 ADD PUSH2 0x14F4 SWAP1 PUSH2 0x2A3D JUMP JUMPDEST PUSH1 0x40 MLOAD DUP1 SWAP2 SUB SWAP1 REVERT JUMPDEST PUSH2 0x1506 DUP6 PUSH2 0x15CC JUMP JUMPDEST PUSH2 0x1545 JUMPI PUSH1 0x40 MLOAD PUSH32 0x8C379A000000000000000000000000000000000000000000000000000000000 DUP2 MSTORE PUSH1 0x4 ADD PUSH2 0x153C SWAP1 PUSH2 0x2AA9 JUMP JUMPDEST PUSH1 0x40 MLOAD DUP1 SWAP2 SUB SWAP1 REVERT JUMPDEST PUSH1 0x0 DUP1 DUP7 PUSH20 0xFFFFFFFFFFFFFFFFFFFFFFFFFFFFFFFFFFFFFFFF AND DUP6 DUP8 PUSH1 0x40 MLOAD PUSH2 0x156E SWAP2 SWAP1 PUSH2 0x2B43 JUMP JUMPDEST PUSH1 0x0 PUSH1 0x40 MLOAD DUP1 DUP4 SUB DUP2 DUP6 DUP8 GAS CALL SWAP3 POP POP POP RETURNDATASIZE DUP1 PUSH1 0x0 DUP2 EQ PUSH2 0x15AB JUMPI PUSH1 0x40 MLOAD SWAP2 POP PUSH1 0x1F NOT PUSH1 0x3F RETURNDATASIZE ADD AND DUP3 ADD PUSH1 0x40 MSTORE RETURNDATASIZE DUP3 MSTORE RETURNDATASIZE PUSH1 0x0 PUSH1 0x20 DUP5 ADD RETURNDATACOPY PUSH2 0x15B0 JUMP JUMPDEST PUSH1 0x60 SWAP2 POP JUMPDEST POP SWAP2 POP SWAP2 POP PUSH2 0x15C0 DUP3 DUP3 DUP7 PUSH2 0x15EF JUMP JUMPDEST SWAP3 POP POP POP SWAP5 SWAP4 POP POP POP POP JUMP JUMPDEST PUSH1 0x0 DUP1 DUP3 PUSH20 0xFFFFFFFFFFFFFFFFFFFFFFFFFFFFFFFFFFFFFFFF AND EXTCODESIZE GT SWAP1 POP SWAP2 SWAP1 POP JUMP JUMPDEST PUSH1 0x60 DUP4 ISZERO PUSH2 0x15FF JUMPI DUP3 SWAP1 POP PUSH2 0x164F JUMP JUMPDEST PUSH1 0x0 DUP4 MLOAD GT ISZERO PUSH2 0x1612 JUMPI DUP3 MLOAD DUP1 DUP5 PUSH1 0x20 ADD REVERT JUMPDEST DUP2 PUSH1 0x40 MLOAD PUSH32 0x8C379A000000000000000000000000000000000000000000000000000000000 DUP2 MSTORE PUSH1 0x4 ADD PUSH2 0x1646 SWAP2 SWAP1 PUSH2 0x2BAF JUMP JUMPDEST PUSH1 0x40 MLOAD DUP1 SWAP2 SUB SWAP1 REVERT JUMPDEST SWAP4 SWAP3 POP POP POP JUMP JUMPDEST PUSH1 0x0 DUP1 REVERT JUMPDEST PUSH1 0x0 DUP1 REVERT JUMPDEST PUSH1 0x0 DUP1 REVERT JUMPDEST PUSH1 0x0 PUSH1 0x40 DUP3 DUP5 SUB SLT ISZERO PUSH2 0x167B JUMPI PUSH2 0x167A PUSH2 0x1660 JUMP JUMPDEST JUMPDEST DUP2 SWAP1 POP SWAP3 SWAP2 POP POP JUMP JUMPDEST PUSH1 0x0 PUSH1 0x20 DUP3 DUP5 SUB SLT ISZERO PUSH2 0x169A JUMPI PUSH2 0x1699 PUSH2 0x1656 JUMP JUMPDEST JUMPDEST PUSH1 0x0 DUP3 ADD CALLDATALOAD PUSH8 0xFFFFFFFFFFFFFFFF DUP2 GT ISZERO PUSH2 0x16B8 JUMPI PUSH2 0x16B7 PUSH2 0x165B JUMP JUMPDEST JUMPDEST PUSH2 0x16C4 DUP5 DUP3 DUP6 ADD PUSH2 0x1665 JUMP JUMPDEST SWAP2 POP POP SWAP3 SWAP2 POP POP JUMP JUMPDEST PUSH1 0x0 DUP2 SWAP1 POP SWAP2 SWAP1 POP JUMP JUMPDEST PUSH2 0x16E0 DUP2 PUSH2 0x16CD JUMP JUMPDEST DUP2 EQ PUSH2 0x16EB JUMPI PUSH1 0x0 DUP1 REVERT JUMPDEST POP JUMP JUMPDEST PUSH1 0x0 DUP2 CALLDATALOAD SWAP1 POP PUSH2 0x16FD DUP2 PUSH2 0x16D7 JUMP JUMPDEST SWAP3 SWAP2 POP POP JUMP JUMPDEST PUSH1 0x0 PUSH1 0x20 DUP3 DUP5 SUB SLT ISZERO PUSH2 0x1719 JUMPI PUSH2 0x1718 PUSH2 0x1656 JUMP JUMPDEST JUMPDEST PUSH1 0x0 PUSH2 0x1727 DUP5 DUP3 DUP6 ADD PUSH2 0x16EE JUMP JUMPDEST SWAP2 POP POP SWAP3 SWAP2 POP POP JUMP JUMPDEST PUSH1 0x0 PUSH20 0xFFFFFFFFFFFFFFFFFFFFFFFFFFFFFFFFFFFFFFFF DUP3 AND SWAP1 POP SWAP2 SWAP1 POP JUMP JUMPDEST PUSH1 0x0 PUSH2 0x175B DUP3 PUSH2 0x1730 JUMP JUMPDEST SWAP1 POP SWAP2 SWAP1 POP JUMP JUMPDEST PUSH2 0x176B DUP2 PUSH2 0x1750 JUMP JUMPDEST DUP3 MSTORE POP POP JUMP JUMPDEST PUSH1 0x0 DUP2 MLOAD SWAP1 POP SWAP2 SWAP1 POP JUMP JUMPDEST PUSH1 0x0 DUP3 DUP3 MSTORE PUSH1 0x20 DUP3 ADD SWAP1 POP SWAP3 SWAP2 POP POP JUMP JUMPDEST PUSH1 0x0 DUP2 SWAP1 POP PUSH1 0x20 DUP3 ADD SWAP1 POP SWAP2 SWAP1 POP JUMP JUMPDEST PUSH2 0x17A6 DUP2 PUSH2 0x1750 JUMP JUMPDEST DUP3 MSTORE POP POP JUMP JUMPDEST PUSH2 0x17B5 DUP2 PUSH2 0x16CD JUMP JUMPDEST DUP3 MSTORE POP POP JUMP JUMPDEST PUSH1 0x40 DUP3 ADD PUSH1 0x0 DUP3 ADD MLOAD PUSH2 0x17D1 PUSH1 0x0 DUP6 ADD DUP3 PUSH2 0x179D JUMP JUMPDEST POP PUSH1 0x20 DUP3 ADD MLOAD PUSH2 0x17E4 PUSH1 0x20 DUP6 ADD DUP3 PUSH2 0x17AC JUMP JUMPDEST POP POP POP POP JUMP JUMPDEST PUSH1 0x0 PUSH2 0x17F6 DUP4 DUP4 PUSH2 0x17BB JUMP JUMPDEST PUSH1 0x40 DUP4 ADD SWAP1 POP SWAP3 SWAP2 POP POP JUMP JUMPDEST PUSH1 0x0 PUSH1 0x20 DUP3 ADD SWAP1 POP SWAP2 SWAP1 POP JUMP JUMPDEST PUSH1 0x0 PUSH2 0x181A DUP3 PUSH2 0x1771 JUMP JUMPDEST PUSH2 0x1824 DUP2 DUP6 PUSH2 0x177C JUMP JUMPDEST SWAP4 POP PUSH2 0x182F DUP4 PUSH2 0x178D JUMP JUMPDEST DUP1 PUSH1 0x0 JUMPDEST DUP4 DUP2 LT ISZERO PUSH2 0x1860 JUMPI DUP2 MLOAD PUSH2 0x1847 DUP9 DUP3 PUSH2 0x17EA JUMP JUMPDEST SWAP8 POP PUSH2 0x1852 DUP4 PUSH2 0x1802 JUMP JUMPDEST SWAP3 POP POP PUSH1 0x1 DUP2 ADD SWAP1 POP PUSH2 0x1833 JUMP JUMPDEST POP DUP6 SWAP4 POP POP POP POP SWAP3 SWAP2 POP POP JUMP JUMPDEST PUSH1 0x0 DUP2 MLOAD SWAP1 POP SWAP2 SWAP1 POP JUMP JUMPDEST PUSH1 0x0 DUP3 DUP3 MSTORE PUSH1 0x20 DUP3 ADD SWAP1 POP SWAP3 SWAP2 POP POP JUMP JUMPDEST PUSH1 0x0 DUP2 SWAP1 POP PUSH1 0x20 DUP3 ADD SWAP1 POP SWAP2 SWAP1 POP JUMP JUMPDEST PUSH1 0x40 DUP3 ADD PUSH1 0x0 DUP3 ADD MLOAD PUSH2 0x18AF PUSH1 0x0 DUP6 ADD DUP3 PUSH2 0x179D JUMP JUMPDEST POP PUSH1 0x20 DUP3 ADD MLOAD PUSH2 0x18C2 PUSH1 0x20 DUP6 ADD DUP3 PUSH2 0x17AC JUMP JUMPDEST POP POP POP POP JUMP JUMPDEST PUSH1 0x0 PUSH2 0x18D4 DUP4 DUP4 PUSH2 0x1899 JUMP JUMPDEST PUSH1 0x40 DUP4 ADD SWAP1 POP SWAP3 SWAP2 POP POP JUMP JUMPDEST PUSH1 0x0 PUSH1 0x20 DUP3 ADD SWAP1 POP SWAP2 SWAP1 POP JUMP JUMPDEST PUSH1 0x0 PUSH2 0x18F8 DUP3 PUSH2 0x186D JUMP JUMPDEST PUSH2 0x1902 DUP2 DUP6 PUSH2 0x1878 JUMP JUMPDEST SWAP4 POP PUSH2 0x190D DUP4 PUSH2 0x1889 JUMP JUMPDEST DUP1 PUSH1 0x0 JUMPDEST DUP4 DUP2 LT ISZERO PUSH2 0x193E JUMPI DUP2 MLOAD PUSH2 0x1925 DUP9 DUP3 PUSH2 0x18C8 JUMP JUMPDEST SWAP8 POP PUSH2 0x1930 DUP4 PUSH2 0x18E0 JUMP JUMPDEST SWAP3 POP POP PUSH1 0x1 DUP2 ADD SWAP1 POP PUSH2 0x1911 JUMP JUMPDEST POP DUP6 SWAP4 POP POP POP POP SWAP3 SWAP2 POP POP JUMP JUMPDEST PUSH1 0x0 PUSH1 0x40 DUP4 ADD PUSH1 0x0 DUP4 ADD MLOAD DUP5 DUP3 SUB PUSH1 0x0 DUP7 ADD MSTORE PUSH2 0x1968 DUP3 DUP3 PUSH2 0x180F JUMP JUMPDEST SWAP2 POP POP PUSH1 0x20 DUP4 ADD MLOAD DUP5 DUP3 SUB PUSH1 0x20 DUP7 ADD MSTORE PUSH2 0x1982 DUP3 DUP3 PUSH2 0x18ED JUMP JUMPDEST SWAP2 POP POP DUP1 SWAP2 POP POP SWAP3 SWAP2 POP POP JUMP JUMPDEST PUSH1 0x0 DUP2 ISZERO ISZERO SWAP1 POP SWAP2 SWAP1 POP JUMP JUMPDEST PUSH2 0x19A4 DUP2 PUSH2 0x198F JUMP JUMPDEST DUP3 MSTORE POP POP JUMP JUMPDEST PUSH1 0x0 PUSH1 0x60 DUP3 ADD SWAP1 POP PUSH2 0x19BF PUSH1 0x0 DUP4 ADD DUP7 PUSH2 0x1762 JUMP JUMPDEST DUP2 DUP2 SUB PUSH1 0x20 DUP4 ADD MSTORE PUSH2 0x19D1 DUP2 DUP6 PUSH2 0x194B JUMP JUMPDEST SWAP1 POP PUSH2 0x19E0 PUSH1 0x40 DUP4 ADD DUP5 PUSH2 0x199B JUMP JUMPDEST SWAP5 SWAP4 POP POP POP POP JUMP JUMPDEST PUSH1 0x0 DUP1 PUSH1 0x40 DUP4 DUP6 SUB SLT ISZERO PUSH2 0x19FF JUMPI PUSH2 0x19FE PUSH2 0x1656 JUMP JUMPDEST JUMPDEST PUSH1 0x0 PUSH2 0x1A0D DUP6 DUP3 DUP7 ADD PUSH2 0x16EE JUMP JUMPDEST SWAP3 POP POP PUSH1 0x20 PUSH2 0x1A1E DUP6 DUP3 DUP7 ADD PUSH2 0x16EE JUMP JUMPDEST SWAP2 POP POP SWAP3 POP SWAP3 SWAP1 POP JUMP JUMPDEST PUSH1 0x0 PUSH1 0x20 DUP3 ADD SWAP1 POP PUSH2 0x1A3D PUSH1 0x0 DUP4 ADD DUP5 PUSH2 0x1762 JUMP JUMPDEST SWAP3 SWAP2 POP POP JUMP JUMPDEST PUSH2 0x1A4C DUP2 PUSH2 0x16CD JUMP JUMPDEST DUP3 MSTORE POP POP JUMP JUMPDEST PUSH1 0x0 PUSH1 0x80 DUP3 ADD SWAP1 POP PUSH2 0x1A67 PUSH1 0x0 DUP4 ADD DUP8 PUSH2 0x1762 JUMP JUMPDEST PUSH2 0x1A74 PUSH1 0x20 DUP4 ADD DUP7 PUSH2 0x1A43 JUMP JUMPDEST DUP2 DUP2 SUB PUSH1 0x40 DUP4 ADD MSTORE PUSH2 0x1A86 DUP2 DUP6 PUSH2 0x194B JUMP JUMPDEST SWAP1 POP PUSH2 0x1A95 PUSH1 0x60 DUP4 ADD DUP5 PUSH2 0x199B JUMP JUMPDEST SWAP6 SWAP5 POP POP POP POP POP JUMP JUMPDEST PUSH1 0x0 DUP1 PUSH1 0x40 DUP4 DUP6 SUB SLT ISZERO PUSH2 0x1AB5 JUMPI PUSH2 0x1AB4 PUSH2 0x1656 JUMP JUMPDEST JUMPDEST PUSH1 0x0 PUSH2 0x1AC3 DUP6 DUP3 DUP7 ADD PUSH2 0x16EE JUMP JUMPDEST SWAP3 POP POP PUSH1 0x20 DUP4 ADD CALLDATALOAD PUSH8 0xFFFFFFFFFFFFFFFF DUP2 GT ISZERO PUSH2 0x1AE4 JUMPI PUSH2 0x1AE3 PUSH2 0x165B JUMP JUMPDEST JUMPDEST PUSH2 0x1AF0 DUP6 DUP3 DUP7 ADD PUSH2 0x1665 JUMP JUMPDEST SWAP2 POP POP SWAP3 POP SWAP3 SWAP1 POP JUMP JUMPDEST PUSH2 0x1B03 DUP2 PUSH2 0x1750 JUMP JUMPDEST DUP2 EQ PUSH2 0x1B0E JUMPI PUSH1 0x0 DUP1 REVERT JUMPDEST POP JUMP JUMPDEST PUSH1 0x0 DUP2 CALLDATALOAD SWAP1 POP PUSH2 0x1B20 DUP2 PUSH2 0x1AFA JUMP JUMPDEST SWAP3 SWAP2 POP POP JUMP JUMPDEST PUSH1 0x0 PUSH1 0x20 DUP3 DUP5 SUB SLT ISZERO PUSH2 0x1B3C JUMPI PUSH2 0x1B3B PUSH2 0x1656 JUMP JUMPDEST JUMPDEST PUSH1 0x0 PUSH2 0x1B4A DUP5 DUP3 DUP6 ADD PUSH2 0x1B11 JUMP JUMPDEST SWAP2 POP POP SWAP3 SWAP2 POP POP JUMP JUMPDEST PUSH1 0x0 DUP1 REVERT JUMPDEST PUSH1 0x0 DUP1 REVERT JUMPDEST PUSH1 0x0 DUP1 REVERT JUMPDEST PUSH1 0x0 DUP1 DUP4 CALLDATALOAD PUSH1 0x1 PUSH1 0x20 SUB DUP5 CALLDATASIZE SUB SUB DUP2 SLT PUSH2 0x1B7F JUMPI PUSH2 0x1B7E PUSH2 0x1B5D JUMP JUMPDEST JUMPDEST DUP4 DUP2 ADD SWAP3 POP DUP3 CALLDATALOAD SWAP2 POP PUSH1 0x20 DUP4 ADD SWAP3 POP PUSH8 0xFFFFFFFFFFFFFFFF DUP3 GT ISZERO PUSH2 0x1BA7 JUMPI PUSH2 0x1BA6 PUSH2 0x1B53 JUMP JUMPDEST JUMPDEST PUSH1 0x40 DUP3 MUL CALLDATASIZE SUB DUP4 SGT ISZERO PUSH2 0x1BBD JUMPI PUSH2 0x1BBC PUSH2 0x1B58 JUMP JUMPDEST JUMPDEST POP SWAP3 POP SWAP3 SWAP1 POP JUMP JUMPDEST PUSH1 0x0 DUP2 SWAP1 POP SWAP2 SWAP1 POP JUMP JUMPDEST PUSH1 0x0 PUSH2 0x1BDE PUSH1 0x20 DUP5 ADD DUP5 PUSH2 0x1B11 JUMP JUMPDEST SWAP1 POP SWAP3 SWAP2 POP POP JUMP JUMPDEST PUSH1 0x0 PUSH2 0x1BF5 PUSH1 0x20 DUP5 ADD DUP5 PUSH2 0x16EE JUMP JUMPDEST SWAP1 POP SWAP3 SWAP2 POP POP JUMP JUMPDEST PUSH1 0x40 DUP3 ADD PUSH2 0x1C0E PUSH1 0x0 DUP4 ADD DUP4 PUSH2 0x1BCF JUMP JUMPDEST PUSH2 0x1C1B PUSH1 0x0 DUP6 ADD DUP3 PUSH2 0x179D JUMP JUMPDEST POP PUSH2 0x1C29 PUSH1 0x20 DUP4 ADD DUP4 PUSH2 0x1BE6 JUMP JUMPDEST PUSH2 0x1C36 PUSH1 0x20 DUP6 ADD DUP3 PUSH2 0x17AC JUMP JUMPDEST POP POP POP POP JUMP JUMPDEST PUSH1 0x0 PUSH2 0x1C48 DUP4 DUP4 PUSH2 0x1BFD JUMP JUMPDEST PUSH1 0x40 DUP4 ADD SWAP1 POP SWAP3 SWAP2 POP POP JUMP JUMPDEST PUSH1 0x0 DUP3 SWAP1 POP SWAP3 SWAP2 POP POP JUMP JUMPDEST PUSH1 0x0 PUSH1 0x40 DUP3 ADD SWAP1 POP SWAP2 SWAP1 POP JUMP JUMPDEST PUSH1 0x0 PUSH2 0x1C78 DUP4 DUP6 PUSH2 0x177C JUMP JUMPDEST SWAP4 POP PUSH2 0x1C83 DUP3 PUSH2 0x1BC5 JUMP JUMPDEST DUP1 PUSH1 0x0 JUMPDEST DUP6 DUP2 LT ISZERO PUSH2 0x1CBC JUMPI PUSH2 0x1C99 DUP3 DUP5 PUSH2 0x1C54 JUMP JUMPDEST PUSH2 0x1CA3 DUP9 DUP3 PUSH2 0x1C3C JUMP JUMPDEST SWAP8 POP PUSH2 0x1CAE DUP4 PUSH2 0x1C5F JUMP JUMPDEST SWAP3 POP POP PUSH1 0x1 DUP2 ADD SWAP1 POP PUSH2 0x1C87 JUMP JUMPDEST POP DUP6 SWAP3 POP POP POP SWAP4 SWAP3 POP POP POP JUMP JUMPDEST PUSH1 0x0 DUP1 DUP4 CALLDATALOAD PUSH1 0x1 PUSH1 0x20 SUB DUP5 CALLDATASIZE SUB SUB DUP2 SLT PUSH2 0x1CE6 JUMPI PUSH2 0x1CE5 PUSH2 0x1B5D JUMP JUMPDEST JUMPDEST DUP4 DUP2 ADD SWAP3 POP DUP3 CALLDATALOAD SWAP2 POP PUSH1 0x20 DUP4 ADD SWAP3 POP PUSH8 0xFFFFFFFFFFFFFFFF DUP3 GT ISZERO PUSH2 0x1D0E JUMPI PUSH2 0x1D0D PUSH2 0x1B53 JUMP JUMPDEST JUMPDEST PUSH1 0x40 DUP3 MUL CALLDATASIZE SUB DUP4 SGT ISZERO PUSH2 0x1D24 JUMPI PUSH2 0x1D23 PUSH2 0x1B58 JUMP JUMPDEST JUMPDEST POP SWAP3 POP SWAP3 SWAP1 POP JUMP JUMPDEST PUSH1 0x0 DUP2 SWAP1 POP SWAP2 SWAP1 POP JUMP JUMPDEST PUSH1 0x40 DUP3 ADD PUSH2 0x1D47 PUSH1 0x0 DUP4 ADD DUP4 PUSH2 0x1BCF JUMP JUMPDEST PUSH2 0x1D54 PUSH1 0x0 DUP6 ADD DUP3 PUSH2 0x179D JUMP JUMPDEST POP PUSH2 0x1D62 PUSH1 0x20 DUP4 ADD DUP4 PUSH2 0x1BE6 JUMP JUMPDEST PUSH2 0x1D6F PUSH1 0x20 DUP6 ADD DUP3 PUSH2 0x17AC JUMP JUMPDEST POP POP POP POP JUMP JUMPDEST PUSH1 0x0 PUSH2 0x1D81 DUP4 DUP4 PUSH2 0x1D36 JUMP JUMPDEST PUSH1 0x40 DUP4 ADD SWAP1 POP SWAP3 SWAP2 POP POP JUMP JUMPDEST PUSH1 0x0 DUP3 SWAP1 POP SWAP3 SWAP2 POP POP JUMP JUMPDEST PUSH1 0x0 PUSH1 0x40 DUP3 ADD SWAP1 POP SWAP2 SWAP1 POP JUMP JUMPDEST PUSH1 0x0 PUSH2 0x1DB1 DUP4 DUP6 PUSH2 0x1878 JUMP JUMPDEST SWAP4 POP PUSH2 0x1DBC DUP3 PUSH2 0x1D2C JUMP JUMPDEST DUP1 PUSH1 0x0 JUMPDEST DUP6 DUP2 LT ISZERO PUSH2 0x1DF5 JUMPI PUSH2 0x1DD2 DUP3 DUP5 PUSH2 0x1D8D JUMP JUMPDEST PUSH2 0x1DDC DUP9 DUP3 PUSH2 0x1D75 JUMP JUMPDEST SWAP8 POP PUSH2 0x1DE7 DUP4 PUSH2 0x1D98 JUMP JUMPDEST SWAP3 POP POP PUSH1 0x1 DUP2 ADD SWAP1 POP PUSH2 0x1DC0 JUMP JUMPDEST POP DUP6 SWAP3 POP POP POP SWAP4 SWAP3 POP POP POP JUMP JUMPDEST PUSH1 0x0 PUSH1 0x40 DUP4 ADD PUSH2 0x1E15 PUSH1 0x0 DUP5 ADD DUP5 PUSH2 0x1B62 JUMP JUMPDEST DUP6 DUP4 SUB PUSH1 0x0 DUP8 ADD MSTORE PUSH2 0x1E28 DUP4 DUP3 DUP5 PUSH2 0x1C6C JUMP JUMPDEST SWAP3 POP POP POP PUSH2 0x1E39 PUSH1 0x20 DUP5 ADD DUP5 PUSH2 0x1CC9 JUMP JUMPDEST DUP6 DUP4 SUB PUSH1 0x20 DUP8 ADD MSTORE PUSH2 0x1E4C DUP4 DUP3 DUP5 PUSH2 0x1DA5 JUMP JUMPDEST SWAP3 POP POP POP DUP1 SWAP2 POP POP SWAP3 SWAP2 POP POP JUMP JUMPDEST PUSH1 0x0 PUSH1 0x60 DUP3 ADD SWAP1 POP PUSH2 0x1E6F PUSH1 0x0 DUP4 ADD DUP7 PUSH2 0x1A43 JUMP JUMPDEST PUSH2 0x1E7C PUSH1 0x20 DUP4 ADD DUP6 PUSH2 0x1762 JUMP JUMPDEST DUP2 DUP2 SUB PUSH1 0x40 DUP4 ADD MSTORE PUSH2 0x1E8E DUP2 DUP5 PUSH2 0x1E02 JUMP JUMPDEST SWAP1 POP SWAP5 SWAP4 POP POP POP POP JUMP JUMPDEST PUSH1 0x0 DUP3 DUP3 MSTORE PUSH1 0x20 DUP3 ADD SWAP1 POP SWAP3 SWAP2 POP POP JUMP JUMPDEST PUSH32 0x4F776E61626C653A2063616C6C6572206973206E6F7420746865206F776E6572 PUSH1 0x0 DUP3 ADD MSTORE POP JUMP JUMPDEST PUSH1 0x0 PUSH2 0x1EDF PUSH1 0x20 DUP4 PUSH2 0x1E98 JUMP JUMPDEST SWAP2 POP PUSH2 0x1EEA DUP3 PUSH2 0x1EA9 JUMP JUMPDEST PUSH1 0x20 DUP3 ADD SWAP1 POP SWAP2 SWAP1 POP JUMP JUMPDEST PUSH1 0x0 PUSH1 0x20 DUP3 ADD SWAP1 POP DUP2 DUP2 SUB PUSH1 0x0 DUP4 ADD MSTORE PUSH2 0x1F0E DUP2 PUSH2 0x1ED2 JUMP JUMPDEST SWAP1 POP SWAP2 SWAP1 POP JUMP JUMPDEST PUSH32 0x4E487B7100000000000000000000000000000000000000000000000000000000 PUSH1 0x0 MSTORE PUSH1 0x32 PUSH1 0x4 MSTORE PUSH1 0x24 PUSH1 0x0 REVERT JUMPDEST PUSH32 0x43616E206F6E6C79206D616E616765206F776E20646973706C61796564206F66 PUSH1 0x0 DUP3 ADD MSTORE PUSH32 0x6665727300000000000000000000000000000000000000000000000000000000 PUSH1 0x20 DUP3 ADD MSTORE POP JUMP JUMPDEST PUSH1 0x0 PUSH2 0x1FA0 PUSH1 0x24 DUP4 PUSH2 0x1E98 JUMP JUMPDEST SWAP2 POP PUSH2 0x1FAB DUP3 PUSH2 0x1F44 JUMP JUMPDEST PUSH1 0x40 DUP3 ADD SWAP1 POP SWAP2 SWAP1 POP JUMP JUMPDEST PUSH1 0x0 PUSH1 0x20 DUP3 ADD SWAP1 POP DUP2 DUP2 SUB PUSH1 0x0 DUP4 ADD MSTORE PUSH2 0x1FCF DUP2 PUSH2 0x1F93 JUMP JUMPDEST SWAP1 POP SWAP2 SWAP1 POP JUMP JUMPDEST PUSH32 0x446973706C61796564206F6666657220697320696E6163746976652E00000000 PUSH1 0x0 DUP3 ADD MSTORE POP JUMP JUMPDEST PUSH1 0x0 PUSH2 0x200C PUSH1 0x1C DUP4 PUSH2 0x1E98 JUMP JUMPDEST SWAP2 POP PUSH2 0x2017 DUP3 PUSH2 0x1FD6 JUMP JUMPDEST PUSH1 0x20 DUP3 ADD SWAP1 POP SWAP2 SWAP1 POP JUMP JUMPDEST PUSH1 0x0 PUSH1 0x20 DUP3 ADD SWAP1 POP DUP2 DUP2 SUB PUSH1 0x0 DUP4 ADD MSTORE PUSH2 0x203B DUP2 PUSH2 0x1FFF JUMP JUMPDEST SWAP1 POP SWAP2 SWAP1 POP JUMP JUMPDEST PUSH32 0x446566696E6564206F6666657220697320696E6163746976652E000000000000 PUSH1 0x0 DUP3 ADD MSTORE POP JUMP JUMPDEST PUSH1 0x0 PUSH2 0x2078 PUSH1 0x1A DUP4 PUSH2 0x1E98 JUMP JUMPDEST SWAP2 POP PUSH2 0x2083 DUP3 PUSH2 0x2042 JUMP JUMPDEST PUSH1 0x20 DUP3 ADD SWAP1 POP SWAP2 SWAP1 POP JUMP JUMPDEST PUSH1 0x0 PUSH1 0x20 DUP3 ADD SWAP1 POP DUP2 DUP2 SUB PUSH1 0x0 DUP4 ADD MSTORE PUSH2 0x20A7 DUP2 PUSH2 0x206B JUMP JUMPDEST SWAP1 POP SWAP2 SWAP1 POP JUMP JUMPDEST PUSH1 0x0 PUSH1 0x40 DUP3 ADD SWAP1 POP PUSH2 0x20C3 PUSH1 0x0 DUP4 ADD DUP6 PUSH2 0x1A43 JUMP JUMPDEST PUSH2 0x20D0 PUSH1 0x20 DUP4 ADD DUP5 PUSH2 0x1A43 JUMP JUMPDEST SWAP4 SWAP3 POP POP POP JUMP JUMPDEST PUSH32 0x43616E206F6E6C792072656D6F7665206F776E20646973706C61796564206F66 PUSH1 0x0 DUP3 ADD MSTORE PUSH32 0x6665727300000000000000000000000000000000000000000000000000000000 PUSH1 0x20 DUP3 ADD MSTORE POP JUMP JUMPDEST PUSH1 0x0 PUSH2 0x2133 PUSH1 0x24 DUP4 PUSH2 0x1E98 JUMP JUMPDEST SWAP2 POP PUSH2 0x213E DUP3 PUSH2 0x20D7 JUMP JUMPDEST PUSH1 0x40 DUP3 ADD SWAP1 POP SWAP2 SWAP1 POP JUMP JUMPDEST PUSH1 0x0 PUSH1 0x20 DUP3 ADD SWAP1 POP DUP2 DUP2 SUB PUSH1 0x0 DUP4 ADD MSTORE PUSH2 0x2162 DUP2 PUSH2 0x2126 JUMP JUMPDEST SWAP1 POP SWAP2 SWAP1 POP JUMP JUMPDEST PUSH32 0x446973706C61796564206F6666657220697320616C726561647920696E616374 PUSH1 0x0 DUP3 ADD MSTORE PUSH32 0x6976652E00000000000000000000000000000000000000000000000000000000 PUSH1 0x20 DUP3 ADD MSTORE POP JUMP JUMPDEST PUSH1 0x0 PUSH2 0x21C5 PUSH1 0x24 DUP4 PUSH2 0x1E98 JUMP JUMPDEST SWAP2 POP PUSH2 0x21D0 DUP3 PUSH2 0x2169 JUMP JUMPDEST PUSH1 0x40 DUP3 ADD SWAP1 POP SWAP2 SWAP1 POP JUMP JUMPDEST PUSH1 0x0 PUSH1 0x20 DUP3 ADD SWAP1 POP DUP2 DUP2 SUB PUSH1 0x0 DUP4 ADD MSTORE PUSH2 0x21F4 DUP2 PUSH2 0x21B8 JUMP JUMPDEST SWAP1 POP SWAP2 SWAP1 POP JUMP JUMPDEST PUSH1 0x0 PUSH1 0x20 DUP3 ADD SWAP1 POP PUSH2 0x2210 PUSH1 0x0 DUP4 ADD DUP5 PUSH2 0x1A43 JUMP JUMPDEST SWAP3 SWAP2 POP POP JUMP JUMPDEST PUSH32 0x43616E206F6E6C792072656D6F7665206F776E20646566696E6564206F666665 PUSH1 0x0 DUP3 ADD MSTORE PUSH32 0x7273000000000000000000000000000000000000000000000000000000000000 PUSH1 0x20 DUP3 ADD MSTORE POP JUMP JUMPDEST PUSH1 0x0 PUSH2 0x2272 PUSH1 0x22 DUP4 PUSH2 0x1E98 JUMP JUMPDEST SWAP2 POP PUSH2 0x227D DUP3 PUSH2 0x2216 JUMP JUMPDEST PUSH1 0x40 DUP3 ADD SWAP1 POP SWAP2 SWAP1 POP JUMP JUMPDEST PUSH1 0x0 PUSH1 0x20 DUP3 ADD SWAP1 POP DUP2 DUP2 SUB PUSH1 0x0 DUP4 ADD MSTORE PUSH2 0x22A1 DUP2 PUSH2 0x2265 JUMP JUMPDEST SWAP1 POP SWAP2 SWAP1 POP JUMP JUMPDEST PUSH32 0x446566696E6564206F6666657220697320616C726561647920696E6163746976 PUSH1 0x0 DUP3 ADD MSTORE PUSH32 0x652E000000000000000000000000000000000000000000000000000000000000 PUSH1 0x20 DUP3 ADD MSTORE POP JUMP JUMPDEST PUSH1 0x0 PUSH2 0x2304 PUSH1 0x22 DUP4 PUSH2 0x1E98 JUMP JUMPDEST SWAP2 POP PUSH2 0x230F DUP3 PUSH2 0x22A8 JUMP JUMPDEST PUSH1 0x40 DUP3 ADD SWAP1 POP SWAP2 SWAP1 POP JUMP JUMPDEST PUSH1 0x0 PUSH1 0x20 DUP3 ADD SWAP1 POP DUP2 DUP2 SUB PUSH1 0x0 DUP4 ADD MSTORE PUSH2 0x2333 DUP2 PUSH2 0x22F7 JUMP JUMPDEST SWAP1 POP SWAP2 SWAP1 POP JUMP JUMPDEST PUSH1 0x0 PUSH1 0x80 DUP3 ADD SWAP1 POP PUSH2 0x234F PUSH1 0x0 DUP4 ADD DUP8 PUSH2 0x1A43 JUMP JUMPDEST PUSH2 0x235C PUSH1 0x20 DUP4 ADD DUP7 PUSH2 0x1A43 JUMP JUMPDEST PUSH2 0x2369 PUSH1 0x40 DUP4 ADD DUP6 PUSH2 0x1762 JUMP JUMPDEST DUP2 DUP2 SUB PUSH1 0x60 DUP4 ADD MSTORE PUSH2 0x237B DUP2 DUP5 PUSH2 0x1E02 JUMP JUMPDEST SWAP1 POP SWAP6 SWAP5 POP POP POP POP POP JUMP JUMPDEST PUSH32 0x4F776E61626C653A206E6577206F776E657220697320746865207A65726F2061 PUSH1 0x0 DUP3 ADD MSTORE PUSH32 0x6464726573730000000000000000000000000000000000000000000000000000 PUSH1 0x20 DUP3 ADD MSTORE POP JUMP JUMPDEST PUSH1 0x0 PUSH2 0x23E2 PUSH1 0x26 DUP4 PUSH2 0x1E98 JUMP JUMPDEST SWAP2 POP PUSH2 0x23ED DUP3 PUSH2 0x2386 JUMP JUMPDEST PUSH1 0x40 DUP3 ADD SWAP1 POP SWAP2 SWAP1 POP JUMP JUMPDEST PUSH1 0x0 PUSH1 0x20 DUP3 ADD SWAP1 POP DUP2 DUP2 SUB PUSH1 0x0 DUP4 ADD MSTORE PUSH2 0x2411 DUP2 PUSH2 0x23D5 JUMP JUMPDEST SWAP1 POP SWAP2 SWAP1 POP JUMP JUMPDEST PUSH1 0x0 DUP1 REVERT JUMPDEST PUSH1 0x0 DUP1 REVERT JUMPDEST PUSH1 0x0 DUP1 REVERT JUMPDEST PUSH1 0x0 DUP1 DUP4 CALLDATALOAD PUSH1 0x1 PUSH1 0x20 SUB DUP5 CALLDATASIZE SUB SUB DUP2 SLT PUSH2 0x2444 JUMPI PUSH2 0x2443 PUSH2 0x2418 JUMP JUMPDEST JUMPDEST DUP1 DUP5 ADD SWAP3 POP DUP3 CALLDATALOAD SWAP2 POP PUSH8 0xFFFFFFFFFFFFFFFF DUP3 GT ISZERO PUSH2 0x2466 JUMPI PUSH2 0x2465 PUSH2 0x241D JUMP JUMPDEST JUMPDEST PUSH1 0x20 DUP4 ADD SWAP3 POP PUSH1 0x40 DUP3 MUL CALLDATASIZE SUB DUP4 SGT ISZERO PUSH2 0x2482 JUMPI PUSH2 0x2481 PUSH2 0x2422 JUMP JUMPDEST JUMPDEST POP SWAP3 POP SWAP3 SWAP1 POP JUMP JUMPDEST PUSH1 0x0 DUP2 CALLDATALOAD PUSH2 0x2497 DUP2 PUSH2 0x1AFA JUMP JUMPDEST DUP1 SWAP2 POP POP SWAP2 SWAP1 POP JUMP JUMPDEST PUSH1 0x0 DUP2 PUSH1 0x0 SHL SWAP1 POP SWAP2 SWAP1 POP JUMP JUMPDEST PUSH1 0x0 PUSH20 0xFFFFFFFFFFFFFFFFFFFFFFFFFFFFFFFFFFFFFFFF PUSH2 0x24CD DUP5 PUSH2 0x24A0 JUMP JUMPDEST SWAP4 POP DUP1 NOT DUP4 AND SWAP3 POP DUP1 DUP5 AND DUP4 OR SWAP2 POP POP SWAP3 SWAP2 POP POP JUMP JUMPDEST PUSH1 0x0 DUP2 SWAP1 POP SWAP2 SWAP1 POP JUMP JUMPDEST PUSH1 0x0 PUSH2 0x2508 PUSH2 0x2503 PUSH2 0x24FE DUP5 PUSH2 0x1730 JUMP JUMPDEST PUSH2 0x24E3 JUMP JUMPDEST PUSH2 0x1730 JUMP JUMPDEST SWAP1 POP SWAP2 SWAP1 POP JUMP JUMPDEST PUSH1 0x0 PUSH2 0x251A DUP3 PUSH2 0x24ED JUMP JUMPDEST SWAP1 POP SWAP2 SWAP1 POP JUMP JUMPDEST PUSH1 0x0 PUSH2 0x252C DUP3 PUSH2 0x250F JUMP JUMPDEST SWAP1 POP SWAP2 SWAP1 POP JUMP JUMPDEST PUSH1 0x0 DUP2 SWAP1 POP SWAP2 SWAP1 POP JUMP JUMPDEST PUSH2 0x2546 DUP3 PUSH2 0x2521 JUMP JUMPDEST PUSH2 0x2559 PUSH2 0x2552 DUP3 PUSH2 0x2533 JUMP JUMPDEST DUP4 SLOAD PUSH2 0x24AD JUMP JUMPDEST DUP3 SSTORE POP POP POP JUMP JUMPDEST PUSH1 0x0 DUP2 CALLDATALOAD PUSH2 0x256D DUP2 PUSH2 0x16D7 JUMP JUMPDEST DUP1 SWAP2 POP POP SWAP2 SWAP1 POP JUMP JUMPDEST PUSH1 0x0 PUSH32 0xFFFFFFFFFFFFFFFFFFFFFFFFFFFFFFFFFFFFFFFFFFFFFFFFFFFFFFFFFFFFFFFF PUSH2 0x25A2 DUP5 PUSH2 0x24A0 JUMP JUMPDEST SWAP4 POP DUP1 NOT DUP4 AND SWAP3 POP DUP1 DUP5 AND DUP4 OR SWAP2 POP POP SWAP3 SWAP2 POP POP JUMP JUMPDEST PUSH1 0x0 PUSH2 0x25D3 PUSH2 0x25CE PUSH2 0x25C9 DUP5 PUSH2 0x16CD JUMP JUMPDEST PUSH2 0x24E3 JUMP JUMPDEST PUSH2 0x16CD JUMP JUMPDEST SWAP1 POP SWAP2 SWAP1 POP JUMP JUMPDEST PUSH1 0x0 DUP2 SWAP1 POP SWAP2 SWAP1 POP JUMP JUMPDEST PUSH2 0x25ED DUP3 PUSH2 0x25B8 JUMP JUMPDEST PUSH2 0x2600 PUSH2 0x25F9 DUP3 PUSH2 0x25DA JUMP JUMPDEST DUP4 SLOAD PUSH2 0x2576 JUMP JUMPDEST DUP3 SSTORE POP POP POP JUMP JUMPDEST PUSH1 0x0 DUP2 ADD PUSH1 0x0 DUP4 ADD DUP1 PUSH2 0x2619 DUP2 PUSH2 0x248A JUMP JUMPDEST SWAP1 POP PUSH2 0x2625 DUP2 DUP5 PUSH2 0x253D JUMP JUMPDEST POP POP POP PUSH1 0x1 DUP2 ADD PUSH1 0x20 DUP4 ADD DUP1 PUSH2 0x263A DUP2 PUSH2 0x2560 JUMP JUMPDEST SWAP1 POP PUSH2 0x2646 DUP2 DUP5 PUSH2 0x25E4 JUMP JUMPDEST POP POP POP POP POP JUMP JUMPDEST PUSH2 0x2657 DUP3 DUP3 PUSH2 0x2607 JUMP JUMPDEST POP POP JUMP JUMPDEST PUSH32 0x4E487B7100000000000000000000000000000000000000000000000000000000 PUSH1 0x0 MSTORE PUSH1 0x11 PUSH1 0x4 MSTORE PUSH1 0x24 PUSH1 0x0 REVERT JUMPDEST PUSH1 0x0 PUSH2 0x2695 DUP3 PUSH2 0x16CD JUMP JUMPDEST SWAP2 POP PUSH32 0xFFFFFFFFFFFFFFFFFFFFFFFFFFFFFFFFFFFFFFFFFFFFFFFFFFFFFFFFFFFFFFFF DUP3 SUB PUSH2 0x26C7 JUMPI PUSH2 0x26C6 PUSH2 0x265B JUMP JUMPDEST JUMPDEST PUSH1 0x1 DUP3 ADD SWAP1 POP SWAP2 SWAP1 POP JUMP JUMPDEST PUSH1 0x0 DUP1 DUP4 CALLDATALOAD PUSH1 0x1 PUSH1 0x20 SUB DUP5 CALLDATASIZE SUB SUB DUP2 SLT PUSH2 0x26EF JUMPI PUSH2 0x26EE PUSH2 0x2418 JUMP JUMPDEST JUMPDEST DUP1 DUP5 ADD SWAP3 POP DUP3 CALLDATALOAD SWAP2 POP PUSH8 0xFFFFFFFFFFFFFFFF DUP3 GT ISZERO PUSH2 0x2711 JUMPI PUSH2 0x2710 PUSH2 0x241D JUMP JUMPDEST JUMPDEST PUSH1 0x20 DUP4 ADD SWAP3 POP PUSH1 0x40 DUP3 MUL CALLDATASIZE SUB DUP4 SGT ISZERO PUSH2 0x272D JUMPI PUSH2 0x272C PUSH2 0x2422 JUMP JUMPDEST JUMPDEST POP SWAP3 POP SWAP3 SWAP1 POP JUMP JUMPDEST PUSH1 0x0 DUP2 ADD PUSH1 0x0 DUP4 ADD DUP1 PUSH2 0x2747 DUP2 PUSH2 0x248A JUMP JUMPDEST SWAP1 POP PUSH2 0x2753 DUP2 DUP5 PUSH2 0x253D JUMP JUMPDEST POP POP POP PUSH1 0x1 DUP2 ADD PUSH1 0x20 DUP4 ADD DUP1 PUSH2 0x2768 DUP2 PUSH2 0x2560 JUMP JUMPDEST SWAP1 POP PUSH2 0x2774 DUP2 DUP5 PUSH2 0x25E4 JUMP JUMPDEST POP POP POP POP POP JUMP JUMPDEST PUSH2 0x2785 DUP3 DUP3 PUSH2 0x2735 JUMP JUMPDEST POP POP JUMP JUMPDEST PUSH1 0x0 PUSH32 0xFFFFFFFF00000000000000000000000000000000000000000000000000000000 DUP3 AND SWAP1 POP SWAP2 SWAP1 POP JUMP JUMPDEST PUSH2 0x27BE DUP2 PUSH2 0x2789 JUMP JUMPDEST DUP3 MSTORE POP POP JUMP JUMPDEST PUSH1 0x0 PUSH1 0x20 DUP3 ADD SWAP1 POP PUSH2 0x27D9 PUSH1 0x0 DUP4 ADD DUP5 PUSH2 0x27B5 JUMP JUMPDEST SWAP3 SWAP2 POP POP JUMP JUMPDEST PUSH2 0x27E8 DUP2 PUSH2 0x198F JUMP JUMPDEST DUP2 EQ PUSH2 0x27F3 JUMPI PUSH1 0x0 DUP1 REVERT JUMPDEST POP JUMP JUMPDEST PUSH1 0x0 DUP2 MLOAD SWAP1 POP PUSH2 0x2805 DUP2 PUSH2 0x27DF JUMP JUMPDEST SWAP3 SWAP2 POP POP JUMP JUMPDEST PUSH1 0x0 PUSH1 0x20 DUP3 DUP5 SUB SLT ISZERO PUSH2 0x2821 JUMPI PUSH2 0x2820 PUSH2 0x1656 JUMP JUMPDEST JUMPDEST PUSH1 0x0 PUSH2 0x282F DUP5 DUP3 DUP6 ADD PUSH2 0x27F6 JUMP JUMPDEST SWAP2 POP POP SWAP3 SWAP2 POP POP JUMP JUMPDEST PUSH1 0x0 PUSH1 0x60 DUP3 ADD SWAP1 POP PUSH2 0x284D PUSH1 0x0 DUP4 ADD DUP7 PUSH2 0x1762 JUMP JUMPDEST PUSH2 0x285A PUSH1 0x20 DUP4 ADD DUP6 PUSH2 0x1762 JUMP JUMPDEST PUSH2 0x2867 PUSH1 0x40 DUP4 ADD DUP5 PUSH2 0x1A43 JUMP JUMPDEST SWAP5 SWAP4 POP POP POP POP JUMP JUMPDEST PUSH1 0x0 DUP2 SWAP1 POP SWAP2 SWAP1 POP JUMP JUMPDEST PUSH1 0x0 PUSH2 0x2894 PUSH2 0x288F PUSH2 0x288A DUP5 PUSH2 0x286F JUMP JUMPDEST PUSH2 0x24E3 JUMP JUMPDEST PUSH2 0x16CD JUMP JUMPDEST SWAP1 POP SWAP2 SWAP1 POP JUMP JUMPDEST PUSH2 0x28A4 DUP2 PUSH2 0x2879 JUMP JUMPDEST DUP3 MSTORE POP POP JUMP JUMPDEST PUSH1 0x0 DUP3 DUP3 MSTORE PUSH1 0x20 DUP3 ADD SWAP1 POP SWAP3 SWAP2 POP POP JUMP JUMPDEST POP JUMP JUMPDEST PUSH1 0x0 PUSH2 0x28CB PUSH1 0x0 DUP4 PUSH2 0x28AA JUMP JUMPDEST SWAP2 POP PUSH2 0x28D6 DUP3 PUSH2 0x28BB JUMP JUMPDEST PUSH1 0x0 DUP3 ADD SWAP1 POP SWAP2 SWAP1 POP JUMP JUMPDEST PUSH1 0x0 PUSH1 0xA0 DUP3 ADD SWAP1 POP PUSH2 0x28F6 PUSH1 0x0 DUP4 ADD DUP8 PUSH2 0x1762 JUMP JUMPDEST PUSH2 0x2903 PUSH1 0x20 DUP4 ADD DUP7 PUSH2 0x1762 JUMP JUMPDEST PUSH2 0x2910 PUSH1 0x40 DUP4 ADD DUP6 PUSH2 0x1A43 JUMP JUMPDEST PUSH2 0x291D PUSH1 0x60 DUP4 ADD DUP5 PUSH2 0x289B JUMP JUMPDEST DUP2 DUP2 SUB PUSH1 0x80 DUP4 ADD MSTORE PUSH2 0x292E DUP2 PUSH2 0x28BE JUMP JUMPDEST SWAP1 POP SWAP6 SWAP5 POP POP POP POP POP JUMP JUMPDEST PUSH32 0x5361666545524332303A204552433230206F7065726174696F6E20646964206E PUSH1 0x0 DUP3 ADD MSTORE PUSH32 0x6F74207375636365656400000000000000000000000000000000000000000000 PUSH1 0x20 DUP3 ADD MSTORE POP JUMP JUMPDEST PUSH1 0x0 PUSH2 0x2995 PUSH1 0x2A DUP4 PUSH2 0x1E98 JUMP JUMPDEST SWAP2 POP PUSH2 0x29A0 DUP3 PUSH2 0x2939 JUMP JUMPDEST PUSH1 0x40 DUP3 ADD SWAP1 POP SWAP2 SWAP1 POP JUMP JUMPDEST PUSH1 0x0 PUSH1 0x20 DUP3 ADD SWAP1 POP DUP2 DUP2 SUB PUSH1 0x0 DUP4 ADD MSTORE PUSH2 0x29C4 DUP2 PUSH2 0x2988 JUMP JUMPDEST SWAP1 POP SWAP2 SWAP1 POP JUMP JUMPDEST PUSH32 0x416464726573733A20696E73756666696369656E742062616C616E636520666F PUSH1 0x0 DUP3 ADD MSTORE PUSH32 0x722063616C6C0000000000000000000000000000000000000000000000000000 PUSH1 0x20 DUP3 ADD MSTORE POP JUMP JUMPDEST PUSH1 0x0 PUSH2 0x2A27 PUSH1 0x26 DUP4 PUSH2 0x1E98 JUMP JUMPDEST SWAP2 POP PUSH2 0x2A32 DUP3 PUSH2 0x29CB JUMP JUMPDEST PUSH1 0x40 DUP3 ADD SWAP1 POP SWAP2 SWAP1 POP JUMP JUMPDEST PUSH1 0x0 PUSH1 0x20 DUP3 ADD SWAP1 POP DUP2 DUP2 SUB PUSH1 0x0 DUP4 ADD MSTORE PUSH2 0x2A56 DUP2 PUSH2 0x2A1A JUMP JUMPDEST SWAP1 POP SWAP2 SWAP1 POP JUMP JUMPDEST PUSH32 0x416464726573733A2063616C6C20746F206E6F6E2D636F6E7472616374000000 PUSH1 0x0 DUP3 ADD MSTORE POP JUMP JUMPDEST PUSH1 0x0 PUSH2 0x2A93 PUSH1 0x1D DUP4 PUSH2 0x1E98 JUMP JUMPDEST SWAP2 POP PUSH2 0x2A9E DUP3 PUSH2 0x2A5D JUMP JUMPDEST PUSH1 0x20 DUP3 ADD SWAP1 POP SWAP2 SWAP1 POP JUMP JUMPDEST PUSH1 0x0 PUSH1 0x20 DUP3 ADD SWAP1 POP DUP2 DUP2 SUB PUSH1 0x0 DUP4 ADD MSTORE PUSH2 0x2AC2 DUP2 PUSH2 0x2A86 JUMP JUMPDEST SWAP1 POP SWAP2 SWAP1 POP JUMP JUMPDEST PUSH1 0x0 DUP2 MLOAD SWAP1 POP SWAP2 SWAP1 POP JUMP JUMPDEST PUSH1 0x0 DUP2 SWAP1 POP SWAP3 SWAP2 POP POP JUMP JUMPDEST PUSH1 0x0 JUMPDEST DUP4 DUP2 LT ISZERO PUSH2 0x2AFD JUMPI DUP1 DUP3 ADD MLOAD DUP2 DUP5 ADD MSTORE PUSH1 0x20 DUP2 ADD SWAP1 POP PUSH2 0x2AE2 JUMP JUMPDEST DUP4 DUP2 GT ISZERO PUSH2 0x2B0C JUMPI PUSH1 0x0 DUP5 DUP5 ADD MSTORE JUMPDEST POP POP POP POP JUMP JUMPDEST PUSH1 0x0 PUSH2 0x2B1D DUP3 PUSH2 0x2AC9 JUMP JUMPDEST PUSH2 0x2B27 DUP2 DUP6 PUSH2 0x2AD4 JUMP JUMPDEST SWAP4 POP PUSH2 0x2B37 DUP2 DUP6 PUSH1 0x20 DUP7 ADD PUSH2 0x2ADF JUMP JUMPDEST DUP1 DUP5 ADD SWAP2 POP POP SWAP3 SWAP2 POP POP JUMP JUMPDEST PUSH1 0x0 PUSH2 0x2B4F DUP3 DUP5 PUSH2 0x2B12 JUMP JUMPDEST SWAP2 POP DUP2 SWAP1 POP SWAP3 SWAP2 POP POP JUMP JUMPDEST PUSH1 0x0 DUP2 MLOAD SWAP1 POP SWAP2 SWAP1 POP JUMP JUMPDEST PUSH1 0x0 PUSH1 0x1F NOT PUSH1 0x1F DUP4 ADD AND SWAP1 POP SWAP2 SWAP1 POP JUMP JUMPDEST PUSH1 0x0 PUSH2 0x2B81 DUP3 PUSH2 0x2B5A JUMP JUMPDEST PUSH2 0x2B8B DUP2 DUP6 PUSH2 0x1E98 JUMP JUMPDEST SWAP4 POP PUSH2 0x2B9B DUP2 DUP6 PUSH1 0x20 DUP7 ADD PUSH2 0x2ADF JUMP JUMPDEST PUSH2 0x2BA4 DUP2 PUSH2 0x2B65 JUMP JUMPDEST DUP5 ADD SWAP2 POP POP SWAP3 SWAP2 POP POP JUMP JUMPDEST PUSH1 0x0 PUSH1 0x20 DUP3 ADD SWAP1 POP DUP2 DUP2 SUB PUSH1 0x0 DUP4 ADD MSTORE PUSH2 0x2BC9 DUP2 DUP5 PUSH2 0x2B76 JUMP JUMPDEST SWAP1 POP SWAP3 SWAP2 POP POP JUMP INVALID LOG2 PUSH5 0x6970667358 0x22 SLT KECCAK256 JUMPDEST CALLVALUE OR 0xB9 JUMP SAR 0x4E SSTORE PUSH18 0xBCC9E64BEF3FB7EC6D0A712FD93E86EAD90 SHL 0xDD 0xE2 0xD8 PUSH16 0x64736F6C634300080E00330000000000 "
        },
        "methodIdentifiers": {
          "acceptOffer(uint256,uint256)": "81257bd5",
          "cancelDefinedOffer(uint256)": "de76b705",
          "cancelDisplayedOffer(uint256)": "99342de0",
          "defineOffer(uint256,((address,uint256)[],(address,uint256)[]))": "ec85c31f",
          "definedOffers(uint256)": "d4f640ab",
          "displayOffer(((address,uint256)[],(address,uint256)[]))": "3185cc51",
          "displayedOffers(uint256)": "63ec6431",
          "owner()": "8da5cb5b",
          "renounceOwnership()": "715018a6",
          "transferOwnership(address)": "f2fde38b"
        }
      }
    }
  }
}