{
  "_format": "hh-sol-artifact-1",
  "contractName": "Escrow",
  "sourceName": "contracts/Escrow.sol",
  "abi": [
    {
      "anonymous": false,
      "inputs": [
        {
          "indexed": false,
          "internalType": "string",
          "name": "definedOfferId",
          "type": "string"
        }
      ],
      "name": "DefinedOfferCancelled",
      "type": "event"
    },
    {
      "anonymous": false,
      "inputs": [
        {
          "indexed": false,
          "internalType": "string",
          "name": "displayedOfferId",
          "type": "string"
        }
      ],
      "name": "DisplayedOfferCancelled",
      "type": "event"
    },
    {
      "anonymous": false,
      "inputs": [
        {
          "indexed": false,
          "internalType": "string",
          "name": "displayedOfferId",
          "type": "string"
        },
        {
          "indexed": false,
          "internalType": "string",
          "name": "definedOfferId",
          "type": "string"
        }
      ],
      "name": "OfferAccepted",
      "type": "event"
    },
    {
      "anonymous": false,
      "inputs": [
        {
          "indexed": false,
          "internalType": "string",
          "name": "displayedOfferId",
          "type": "string"
        },
        {
          "indexed": false,
          "internalType": "string",
          "name": "definedOfferId",
          "type": "string"
        },
        {
          "indexed": false,
          "internalType": "address",
          "name": "maker",
          "type": "address"
        },
        {
          "indexed": false,
          "internalType": "string",
          "name": "name",
          "type": "string"
        },
        {
          "components": [
            {
              "components": [
                {
                  "internalType": "address",
                  "name": "cAddr",
                  "type": "address"
                },
                {
                  "internalType": "uint256",
                  "name": "tokenId",
                  "type": "uint256"
                }
              ],
              "internalType": "struct IEscrow.Nft[]",
              "name": "nfts",
              "type": "tuple[]"
            },
            {
              "components": [
                {
                  "internalType": "address",
                  "name": "cAddr",
                  "type": "address"
                },
                {
                  "internalType": "uint256",
                  "name": "value",
                  "type": "uint256"
                }
              ],
              "internalType": "struct IEscrow.Pouch[]",
              "name": "pouches",
              "type": "tuple[]"
            }
          ],
          "indexed": false,
          "internalType": "struct IEscrow.Bundle",
          "name": "bundle",
          "type": "tuple"
        }
      ],
      "name": "OfferDefined",
      "type": "event"
    },
    {
      "anonymous": false,
      "inputs": [
        {
          "indexed": false,
          "internalType": "string",
          "name": "displayedOfferId",
          "type": "string"
        },
        {
          "indexed": false,
          "internalType": "address",
          "name": "maker",
          "type": "address"
        },
        {
          "indexed": false,
          "internalType": "string",
          "name": "name",
          "type": "string"
        },
        {
          "components": [
            {
              "components": [
                {
                  "internalType": "address",
                  "name": "cAddr",
                  "type": "address"
                },
                {
                  "internalType": "uint256",
                  "name": "tokenId",
                  "type": "uint256"
                }
              ],
              "internalType": "struct IEscrow.Nft[]",
              "name": "nfts",
              "type": "tuple[]"
            },
            {
              "components": [
                {
                  "internalType": "address",
                  "name": "cAddr",
                  "type": "address"
                },
                {
                  "internalType": "uint256",
                  "name": "value",
                  "type": "uint256"
                }
              ],
              "internalType": "struct IEscrow.Pouch[]",
              "name": "pouches",
              "type": "tuple[]"
            }
          ],
          "indexed": false,
          "internalType": "struct IEscrow.Bundle",
          "name": "bundle",
          "type": "tuple"
        }
      ],
      "name": "OfferDisplayed",
      "type": "event"
    },
    {
      "anonymous": false,
      "inputs": [
        {
          "indexed": true,
          "internalType": "address",
          "name": "previousOwner",
          "type": "address"
        },
        {
          "indexed": true,
          "internalType": "address",
          "name": "newOwner",
          "type": "address"
        }
      ],
      "name": "OwnershipTransferred",
      "type": "event"
    },
    {
      "inputs": [
        {
          "internalType": "uint256",
          "name": "displayedOfferId",
          "type": "uint256"
        },
        {
          "internalType": "uint256",
          "name": "definedOfferId",
          "type": "uint256"
        }
      ],
      "name": "acceptOffer",
      "outputs": [],
      "stateMutability": "nonpayable",
      "type": "function"
    },
    {
      "inputs": [
        {
          "internalType": "uint256",
          "name": "definedOfferId",
          "type": "uint256"
        }
      ],
      "name": "cancelDefinedOffer",
      "outputs": [],
      "stateMutability": "nonpayable",
      "type": "function"
    },
    {
      "inputs": [
        {
          "internalType": "uint256",
          "name": "displayedOfferId",
          "type": "uint256"
        }
      ],
      "name": "cancelDisplayedOffer",
      "outputs": [],
      "stateMutability": "nonpayable",
      "type": "function"
    },
    {
      "inputs": [
        {
          "internalType": "string",
          "name": "name",
          "type": "string"
        },
        {
          "internalType": "uint256",
          "name": "displayedOfferId",
          "type": "uint256"
        },
        {
          "components": [
            {
              "components": [
                {
                  "internalType": "address",
                  "name": "cAddr",
                  "type": "address"
                },
                {
                  "internalType": "uint256",
                  "name": "tokenId",
                  "type": "uint256"
                }
              ],
              "internalType": "struct IEscrow.Nft[]",
              "name": "nfts",
              "type": "tuple[]"
            },
            {
              "components": [
                {
                  "internalType": "address",
                  "name": "cAddr",
                  "type": "address"
                },
                {
                  "internalType": "uint256",
                  "name": "value",
                  "type": "uint256"
                }
              ],
              "internalType": "struct IEscrow.Pouch[]",
              "name": "pouches",
              "type": "tuple[]"
            }
          ],
          "internalType": "struct IEscrow.Bundle",
          "name": "bundle",
          "type": "tuple"
        }
      ],
      "name": "defineOffer",
      "outputs": [],
      "stateMutability": "nonpayable",
      "type": "function"
    },
    {
      "inputs": [
        {
          "internalType": "uint256",
          "name": "",
          "type": "uint256"
        }
      ],
      "name": "definedOffers",
      "outputs": [
        {
          "internalType": "string",
          "name": "name",
          "type": "string"
        },
        {
          "internalType": "address",
          "name": "maker",
          "type": "address"
        },
        {
          "internalType": "uint256",
          "name": "displayedOfferId",
          "type": "uint256"
        },
        {
          "components": [
            {
              "components": [
                {
                  "internalType": "address",
                  "name": "cAddr",
                  "type": "address"
                },
                {
                  "internalType": "uint256",
                  "name": "tokenId",
                  "type": "uint256"
                }
              ],
              "internalType": "struct IEscrow.Nft[]",
              "name": "nfts",
              "type": "tuple[]"
            },
            {
              "components": [
                {
                  "internalType": "address",
                  "name": "cAddr",
                  "type": "address"
                },
                {
                  "internalType": "uint256",
                  "name": "value",
                  "type": "uint256"
                }
              ],
              "internalType": "struct IEscrow.Pouch[]",
              "name": "pouches",
              "type": "tuple[]"
            }
          ],
          "internalType": "struct IEscrow.Bundle",
          "name": "bundle",
          "type": "tuple"
        },
        {
          "internalType": "bool",
          "name": "available",
          "type": "bool"
        }
      ],
      "stateMutability": "view",
      "type": "function"
    },
    {
      "inputs": [
        {
          "internalType": "string",
          "name": "name",
          "type": "string"
        },
        {
          "components": [
            {
              "components": [
                {
                  "internalType": "address",
                  "name": "cAddr",
                  "type": "address"
                },
                {
                  "internalType": "uint256",
                  "name": "tokenId",
                  "type": "uint256"
                }
              ],
              "internalType": "struct IEscrow.Nft[]",
              "name": "nfts",
              "type": "tuple[]"
            },
            {
              "components": [
                {
                  "internalType": "address",
                  "name": "cAddr",
                  "type": "address"
                },
                {
                  "internalType": "uint256",
                  "name": "value",
                  "type": "uint256"
                }
              ],
              "internalType": "struct IEscrow.Pouch[]",
              "name": "pouches",
              "type": "tuple[]"
            }
          ],
          "internalType": "struct IEscrow.Bundle",
          "name": "bundle",
          "type": "tuple"
        }
      ],
      "name": "displayOffer",
      "outputs": [],
      "stateMutability": "nonpayable",
      "type": "function"
    },
    {
      "inputs": [
        {
          "internalType": "uint256",
          "name": "",
          "type": "uint256"
        }
      ],
      "name": "displayedOffers",
      "outputs": [
        {
          "internalType": "string",
          "name": "name",
          "type": "string"
        },
        {
          "internalType": "address",
          "name": "maker",
          "type": "address"
        },
        {
          "components": [
            {
              "components": [
                {
                  "internalType": "address",
                  "name": "cAddr",
                  "type": "address"
                },
                {
                  "internalType": "uint256",
                  "name": "tokenId",
                  "type": "uint256"
                }
              ],
              "internalType": "struct IEscrow.Nft[]",
              "name": "nfts",
              "type": "tuple[]"
            },
            {
              "components": [
                {
                  "internalType": "address",
                  "name": "cAddr",
                  "type": "address"
                },
                {
                  "internalType": "uint256",
                  "name": "value",
                  "type": "uint256"
                }
              ],
              "internalType": "struct IEscrow.Pouch[]",
              "name": "pouches",
              "type": "tuple[]"
            }
          ],
          "internalType": "struct IEscrow.Bundle",
          "name": "bundle",
          "type": "tuple"
        },
        {
          "internalType": "bool",
          "name": "available",
          "type": "bool"
        }
      ],
      "stateMutability": "view",
      "type": "function"
    },
    {
      "inputs": [],
      "name": "owner",
      "outputs": [
        {
          "internalType": "address",
          "name": "",
          "type": "address"
        }
      ],
      "stateMutability": "view",
      "type": "function"
    },
    {
      "inputs": [],
      "name": "renounceOwnership",
      "outputs": [],
      "stateMutability": "nonpayable",
      "type": "function"
    },
    {
      "inputs": [
        {
          "internalType": "address",
          "name": "newOwner",
          "type": "address"
        }
      ],
      "name": "transferOwnership",
      "outputs": [],
      "stateMutability": "nonpayable",
      "type": "function"
    }
  ],
  "bytecode": "0x60806040523480156200001157600080fd5b5062000032620000266200003860201b60201c565b6200004060201b60201c565b62000104565b600033905090565b60008060009054906101000a900473ffffffffffffffffffffffffffffffffffffffff169050816000806101000a81548173ffffffffffffffffffffffffffffffffffffffff021916908373ffffffffffffffffffffffffffffffffffffffff1602179055508173ffffffffffffffffffffffffffffffffffffffff168173ffffffffffffffffffffffffffffffffffffffff167f8be0079c531659141344cd1fd0a4f28419497f9722a3daafe3b4186f6b6457e060405160405180910390a35050565b61345780620001146000396000f3fe608060405234801561001057600080fd5b506004361061009e5760003560e01c80638da5cb5b116100665780638da5cb5b1461013457806399342de014610152578063d4f640ab1461016e578063de76b705146101a2578063f2fde38b146101be5761009e565b80635fa70c0f146100a357806363ec6431146100bf578063715018a6146100f257806376cdb070146100fc57806381257bd514610118575b600080fd5b6100bd60048036038101906100b89190611b39565b6101da565b005b6100d960048036038101906100d49190611bc9565b610337565b6040516100e99493929190611f09565b60405180910390f35b6100fa6105b4565b005b61011660048036038101906101119190611f5c565b61063c565b005b610132600480360381019061012d9190611fd8565b61073f565b005b61013c610a3a565b6040516101499190612018565b60405180910390f35b61016c60048036038101906101679190611bc9565b610a63565b005b61018860048036038101906101839190611bc9565b610bcc565b604051610199959493929190612042565b60405180910390f35b6101bc60048036038101906101b79190611bc9565b610e4f565b005b6101d860048036038101906101d391906120cf565b610fb8565b005b6002805490508210610221576040517f08c379a00000000000000000000000000000000000000000000000000000000081526004016102189061216e565b60405180910390fd5b6000339050600060018054905090506000600180816001815401808255809150500390600052602060002090600602019050828160010160006101000a81548173ffffffffffffffffffffffffffffffffffffffff021916908373ffffffffffffffffffffffffffffffffffffffff16021790555086868260000191906102a99291906119cd565b5060018160050160006101000a81548160ff0219169083151502179055508481600201819055506102dd81600301856110af565b7fd58c3ccca2b42554062cf12167ea779284a701d28fc23c51debbd36206a6aaa1610307866111d7565b610310846111d7565b858a8a89604051610326969594939291906124d1565b60405180910390a150505050505050565b6002818154811061034757600080fd5b906000526020600020906005020160009150905080600001805461036a90612571565b80601f016020809104026020016040519081016040528092919081815260200182805461039690612571565b80156103e35780601f106103b8576101008083540402835291602001916103e3565b820191906000526020600020905b8154815290600101906020018083116103c657829003601f168201915b5050505050908060010160009054906101000a900473ffffffffffffffffffffffffffffffffffffffff16908060020160405180604001604052908160008201805480602002602001604051908101604052809291908181526020016000905b828210156104d557838290600052602060002090600202016040518060400160405290816000820160009054906101000a900473ffffffffffffffffffffffffffffffffffffffff1673ffffffffffffffffffffffffffffffffffffffff1673ffffffffffffffffffffffffffffffffffffffff16815260200160018201548152505081526020019060010190610443565b50505050815260200160018201805480602002602001604051908101604052809291908181526020016000905b8282101561059457838290600052602060002090600202016040518060400160405290816000820160009054906101000a900473ffffffffffffffffffffffffffffffffffffffff1673ffffffffffffffffffffffffffffffffffffffff1673ffffffffffffffffffffffffffffffffffffffff16815260200160018201548152505081526020019060010190610502565b5050505081525050908060040160009054906101000a900460ff16905084565b6105bc611337565b73ffffffffffffffffffffffffffffffffffffffff166105da610a3a565b73ffffffffffffffffffffffffffffffffffffffff1614610630576040517f08c379a0000000000000000000000000000000000000000000000000000000008152600401610627906125ee565b60405180910390fd5b61063a600061133f565b565b600033905060006002805490509050600060026001816001815401808255809150500390600052602060002090600502019050828160010160006101000a81548173ffffffffffffffffffffffffffffffffffffffff021916908373ffffffffffffffffffffffffffffffffffffffff16021790555085858260000191906106c59291906119cd565b5060018160040160006101000a81548160ff0219169083151502179055506106f081600201856110af565b7feb5222243dee0a1261ff25ccd8a848a7e33ab8204879f0dd1c599dd79c6579d961071a836111d7565b8488888860405161072f95949392919061260e565b60405180910390a1505050505050565b6000600283815481106107555761075461266a565b5b906000526020600020906005020190508060010160009054906101000a900473ffffffffffffffffffffffffffffffffffffffff1673ffffffffffffffffffffffffffffffffffffffff163373ffffffffffffffffffffffffffffffffffffffff16146107f7576040517f08c379a00000000000000000000000000000000000000000000000000000000081526004016107ee9061270b565b60405180910390fd5b8060040160009054906101000a900460ff16610848576040517f08c379a000000000000000000000000000000000000000000000000000000000815260040161083f90612777565b60405180910390fd5b60008160040160006101000a81548160ff02191690831515021790555060006001838154811061087b5761087a61266a565b5b906000526020600020906006020190508060050160009054906101000a900460ff166108dc576040517f08c379a00000000000000000000000000000000000000000000000000000000081526004016108d3906127e3565b60405180910390fd5b83816002015414610922576040517f08c379a000000000000000000000000000000000000000000000000000000000815260040161091990612875565b60405180910390fd5b60008160050160006101000a81548160ff0219169083151502179055506109958260010160009054906101000a900473ffffffffffffffffffffffffffffffffffffffff168260010160009054906101000a900473ffffffffffffffffffffffffffffffffffffffff1684600201611403565b6109eb8160010160009054906101000a900473ffffffffffffffffffffffffffffffffffffffff168360010160009054906101000a900473ffffffffffffffffffffffffffffffffffffffff1683600301611403565b7f28bff2a879f51509c229609f136f8ac268c9c1d9928cc49684b951369ffe6012610a15856111d7565b610a1e856111d7565b604051610a2c929190612895565b60405180910390a150505050565b60008060009054906101000a900473ffffffffffffffffffffffffffffffffffffffff16905090565b600060028281548110610a7957610a7861266a565b5b906000526020600020906005020190508060010160009054906101000a900473ffffffffffffffffffffffffffffffffffffffff1673ffffffffffffffffffffffffffffffffffffffff163373ffffffffffffffffffffffffffffffffffffffff1614610b1b576040517f08c379a0000000000000000000000000000000000000000000000000000000008152600401610b129061293e565b60405180910390fd5b8060040160009054906101000a900460ff16610b6c576040517f08c379a0000000000000000000000000000000000000000000000000000000008152600401610b63906129d0565b60405180910390fd5b60008160040160006101000a81548160ff0219169083151502179055507f5edb40cab1eaed908f1aadeb727968e19e1562dfb26b75c9db121bf40ba10faa610bb3836111d7565b604051610bc091906129f0565b60405180910390a15050565b60018181548110610bdc57600080fd5b9060005260206000209060060201600091509050806000018054610bff90612571565b80601f0160208091040260200160405190810160405280929190818152602001828054610c2b90612571565b8015610c785780601f10610c4d57610100808354040283529160200191610c78565b820191906000526020600020905b815481529060010190602001808311610c5b57829003601f168201915b5050505050908060010160009054906101000a900473ffffffffffffffffffffffffffffffffffffffff16908060020154908060030160405180604001604052908160008201805480602002602001604051908101604052809291908181526020016000905b82821015610d7057838290600052602060002090600202016040518060400160405290816000820160009054906101000a900473ffffffffffffffffffffffffffffffffffffffff1673ffffffffffffffffffffffffffffffffffffffff1673ffffffffffffffffffffffffffffffffffffffff16815260200160018201548152505081526020019060010190610cde565b50505050815260200160018201805480602002602001604051908101604052809291908181526020016000905b82821015610e2f57838290600052602060002090600202016040518060400160405290816000820160009054906101000a900473ffffffffffffffffffffffffffffffffffffffff1673ffffffffffffffffffffffffffffffffffffffff1673ffffffffffffffffffffffffffffffffffffffff16815260200160018201548152505081526020019060010190610d9d565b5050505081525050908060050160009054906101000a900460ff16905085565b600060018281548110610e6557610e6461266a565b5b906000526020600020906006020190508060010160009054906101000a900473ffffffffffffffffffffffffffffffffffffffff1673ffffffffffffffffffffffffffffffffffffffff163373ffffffffffffffffffffffffffffffffffffffff1614610f07576040517f08c379a0000000000000000000000000000000000000000000000000000000008152600401610efe90612a84565b60405180910390fd5b8060050160009054906101000a900460ff16610f58576040517f08c379a0000000000000000000000000000000000000000000000000000000008152600401610f4f90612b16565b60405180910390fd5b60008160050160006101000a81548160ff0219169083151502179055507fa60930eb83deaea478b7fa63e5000401ef54271cdef54d251db8327df0fc4f0c610f9f836111d7565b604051610fac91906129f0565b60405180910390a15050565b610fc0611337565b73ffffffffffffffffffffffffffffffffffffffff16610fde610a3a565b73ffffffffffffffffffffffffffffffffffffffff1614611034576040517f08c379a000000000000000000000000000000000000000000000000000000000815260040161102b906125ee565b60405180910390fd5b600073ffffffffffffffffffffffffffffffffffffffff168173ffffffffffffffffffffffffffffffffffffffff16036110a3576040517f08c379a000000000000000000000000000000000000000000000000000000000815260040161109a90612ba8565b60405180910390fd5b6110ac8161133f565b50565b60005b8180600001906110c29190612bd7565b905081101561114057826000018280600001906110df9190612bd7565b838181106110f0576110ef61266a565b5b9050604002019080600181540180825580915050600190039060005260206000209060020201600090919091909150818161112b9190612dfd565b5050808061113890612e3a565b9150506110b2565b5060005b8180602001906111549190612e82565b90508110156111d257826001018280602001906111719190612e82565b838181106111825761118161266a565b5b905060400201908060018154018082558091505060019003906000526020600020906002020160009091909190915081816111bd9190612f2b565b505080806111ca90612e3a565b915050611144565b505050565b60606000820361121e576040518060400160405280600181526020017f30000000000000000000000000000000000000000000000000000000000000008152509050611332565b600082905060005b6000821461125057808061123990612e3a565b915050600a826112499190612f68565b9150611226565b60008167ffffffffffffffff81111561126c5761126b612f99565b5b6040519080825280601f01601f19166020018201604052801561129e5781602001600182028036833780820191505090505b5090505b6000851461132b576001826112b79190612fc8565b9150600a856112c69190612ffc565b60306112d2919061302d565b60f81b8183815181106112e8576112e761266a565b5b60200101907effffffffffffffffffffffffffffffffffffffffffffffffffffffffffffff1916908160001a905350600a856113249190612f68565b94506112a2565b8093505050505b919050565b600033905090565b60008060009054906101000a900473ffffffffffffffffffffffffffffffffffffffff169050816000806101000a81548173ffffffffffffffffffffffffffffffffffffffff021916908373ffffffffffffffffffffffffffffffffffffffff1602179055508173ffffffffffffffffffffffffffffffffffffffff168173ffffffffffffffffffffffffffffffffffffffff167f8be0079c531659141344cd1fd0a4f28419497f9722a3daafe3b4186f6b6457e060405160405180910390a35050565b6000816000019050600082600101905060005b828054905081101561148f5760008382815481106114375761143661266a565b5b9060005260206000209060020201905061147b8160000160009054906101000a900473ffffffffffffffffffffffffffffffffffffffff1688888460010154611535565b50808061148790612e3a565b915050611416565b5060005b818054905081101561152d5760008282815481106114b4576114b361266a565b5b90600052602060002090600202019050611519878783600101548460000160009054906101000a900473ffffffffffffffffffffffffffffffffffffffff1673ffffffffffffffffffffffffffffffffffffffff166116c7909392919063ffffffff16565b50808061152590612e3a565b915050611493565b505050505050565b60008473ffffffffffffffffffffffffffffffffffffffff166301ffc9a77f80ac58cd000000000000000000000000000000000000000000000000000000006040518263ffffffff1660e01b815260040161159091906130be565b602060405180830381865afa1580156115ad573d6000803e3d6000fd5b505050506040513d601f19601f820116820180604052508101906115d19190613105565b9050801561164d578473ffffffffffffffffffffffffffffffffffffffff166342842e0e8585856040518463ffffffff1660e01b815260040161161693929190613132565b600060405180830381600087803b15801561163057600080fd5b505af1158015611644573d6000803e3d6000fd5b505050506116c0565b8473ffffffffffffffffffffffffffffffffffffffff1663f242432a85858560016040518563ffffffff1660e01b815260040161168d94939291906131db565b600060405180830381600087803b1580156116a757600080fd5b505af11580156116bb573d6000803e3d6000fd5b505050505b5050505050565b61174a846323b872dd60e01b8585856040516024016116e893929190613132565b604051602081830303815290604052907bffffffffffffffffffffffffffffffffffffffffffffffffffffffff19166020820180517bffffffffffffffffffffffffffffffffffffffffffffffffffffffff8381831617835250505050611750565b50505050565b60006117b2826040518060400160405280602081526020017f5361666545524332303a206c6f772d6c6576656c2063616c6c206661696c65648152508573ffffffffffffffffffffffffffffffffffffffff166118179092919063ffffffff16565b905060008151111561181257808060200190518101906117d29190613105565b611811576040517f08c379a0000000000000000000000000000000000000000000000000000000008152600401611808906132a5565b60405180910390fd5b5b505050565b6060611826848460008561182f565b90509392505050565b606082471015611874576040517f08c379a000000000000000000000000000000000000000000000000000000000815260040161186b90613337565b60405180910390fd5b61187d85611943565b6118bc576040517f08c379a00000000000000000000000000000000000000000000000000000000081526004016118b3906133a3565b60405180910390fd5b6000808673ffffffffffffffffffffffffffffffffffffffff1685876040516118e5919061340a565b60006040518083038185875af1925050503d8060008114611922576040519150601f19603f3d011682016040523d82523d6000602084013e611927565b606091505b5091509150611937828286611966565b92505050949350505050565b6000808273ffffffffffffffffffffffffffffffffffffffff163b119050919050565b60608315611976578290506119c6565b6000835111156119895782518084602001fd5b816040517f08c379a00000000000000000000000000000000000000000000000000000000081526004016119bd91906129f0565b60405180910390fd5b9392505050565b8280546119d990612571565b90600052602060002090601f0160209004810192826119fb5760008555611a42565b82601f10611a1457803560ff1916838001178555611a42565b82800160010185558215611a42579182015b82811115611a41578235825591602001919060010190611a26565b5b509050611a4f9190611a53565b5090565b5b80821115611a6c576000816000905550600101611a54565b5090565b600080fd5b600080fd5b600080fd5b600080fd5b600080fd5b60008083601f840112611a9f57611a9e611a7a565b5b8235905067ffffffffffffffff811115611abc57611abb611a7f565b5b602083019150836001820283011115611ad857611ad7611a84565b5b9250929050565b6000819050919050565b611af281611adf565b8114611afd57600080fd5b50565b600081359050611b0f81611ae9565b92915050565b600080fd5b600060408284031215611b3057611b2f611b15565b5b81905092915050565b60008060008060608587031215611b5357611b52611a70565b5b600085013567ffffffffffffffff811115611b7157611b70611a75565b5b611b7d87828801611a89565b94509450506020611b9087828801611b00565b925050604085013567ffffffffffffffff811115611bb157611bb0611a75565b5b611bbd87828801611b1a565b91505092959194509250565b600060208284031215611bdf57611bde611a70565b5b6000611bed84828501611b00565b91505092915050565b600081519050919050565b600082825260208201905092915050565b60005b83811015611c30578082015181840152602081019050611c15565b83811115611c3f576000848401525b50505050565b6000601f19601f8301169050919050565b6000611c6182611bf6565b611c6b8185611c01565b9350611c7b818560208601611c12565b611c8481611c45565b840191505092915050565b600073ffffffffffffffffffffffffffffffffffffffff82169050919050565b6000611cba82611c8f565b9050919050565b611cca81611caf565b82525050565b600081519050919050565b600082825260208201905092915050565b6000819050602082019050919050565b611d0581611caf565b82525050565b611d1481611adf565b82525050565b604082016000820151611d306000850182611cfc565b506020820151611d436020850182611d0b565b50505050565b6000611d558383611d1a565b60408301905092915050565b6000602082019050919050565b6000611d7982611cd0565b611d838185611cdb565b9350611d8e83611cec565b8060005b83811015611dbf578151611da68882611d49565b9750611db183611d61565b925050600181019050611d92565b5085935050505092915050565b600081519050919050565b600082825260208201905092915050565b6000819050602082019050919050565b604082016000820151611e0e6000850182611cfc565b506020820151611e216020850182611d0b565b50505050565b6000611e338383611df8565b60408301905092915050565b6000602082019050919050565b6000611e5782611dcc565b611e618185611dd7565b9350611e6c83611de8565b8060005b83811015611e9d578151611e848882611e27565b9750611e8f83611e3f565b925050600181019050611e70565b5085935050505092915050565b60006040830160008301518482036000860152611ec78282611d6e565b91505060208301518482036020860152611ee18282611e4c565b9150508091505092915050565b60008115159050919050565b611f0381611eee565b82525050565b60006080820190508181036000830152611f238187611c56565b9050611f326020830186611cc1565b8181036040830152611f448185611eaa565b9050611f536060830184611efa565b95945050505050565b600080600060408486031215611f7557611f74611a70565b5b600084013567ffffffffffffffff811115611f9357611f92611a75565b5b611f9f86828701611a89565b9350935050602084013567ffffffffffffffff811115611fc257611fc1611a75565b5b611fce86828701611b1a565b9150509250925092565b60008060408385031215611fef57611fee611a70565b5b6000611ffd85828601611b00565b925050602061200e85828601611b00565b9150509250929050565b600060208201905061202d6000830184611cc1565b92915050565b61203c81611adf565b82525050565b600060a082019050818103600083015261205c8188611c56565b905061206b6020830187611cc1565b6120786040830186612033565b818103606083015261208a8185611eaa565b90506120996080830184611efa565b9695505050505050565b6120ac81611caf565b81146120b757600080fd5b50565b6000813590506120c9816120a3565b92915050565b6000602082840312156120e5576120e4611a70565b5b60006120f3848285016120ba565b91505092915050565b7f43616e6e6f74206d616b6520646566696e6564206f66666572206f6e206e6f6e60008201527f206578697374656e7420646973706c61796564206f6666657200000000000000602082015250565b6000612158603983611c01565b9150612163826120fc565b604082019050919050565b600060208201905081810360008301526121878161214b565b9050919050565b82818337600083830152505050565b60006121a98385611c01565b93506121b683858461218e565b6121bf83611c45565b840190509392505050565b600080fd5b600080fd5b600080fd5b600080833560016020038436030381126121f6576121f56121d4565b5b83810192508235915060208301925067ffffffffffffffff82111561221e5761221d6121ca565b5b604082023603831315612234576122336121cf565b5b509250929050565b6000819050919050565b600061225560208401846120ba565b905092915050565b600061226c6020840184611b00565b905092915050565b604082016122856000830183612246565b6122926000850182611cfc565b506122a0602083018361225d565b6122ad6020850182611d0b565b50505050565b60006122bf8383612274565b60408301905092915050565b600082905092915050565b6000604082019050919050565b60006122ef8385611cdb565b93506122fa8261223c565b8060005b858110156123335761231082846122cb565b61231a88826122b3565b9750612325836122d6565b9250506001810190506122fe565b5085925050509392505050565b6000808335600160200384360303811261235d5761235c6121d4565b5b83810192508235915060208301925067ffffffffffffffff821115612385576123846121ca565b5b60408202360383131561239b5761239a6121cf565b5b509250929050565b6000819050919050565b604082016123be6000830183612246565b6123cb6000850182611cfc565b506123d9602083018361225d565b6123e66020850182611d0b565b50505050565b60006123f883836123ad565b60408301905092915050565b600082905092915050565b6000604082019050919050565b60006124288385611dd7565b9350612433826123a3565b8060005b8581101561246c576124498284612404565b61245388826123ec565b975061245e8361240f565b925050600181019050612437565b5085925050509392505050565b60006040830161248c60008401846121d9565b858303600087015261249f8382846122e3565b925050506124b06020840184612340565b85830360208701526124c383828461241c565b925050508091505092915050565b600060a08201905081810360008301526124eb8189611c56565b905081810360208301526124ff8188611c56565b905061250e6040830187611cc1565b818103606083015261252181858761219d565b905081810360808301526125358184612479565b9050979650505050505050565b7f4e487b7100000000000000000000000000000000000000000000000000000000600052602260045260246000fd5b6000600282049050600182168061258957607f821691505b60208210810361259c5761259b612542565b5b50919050565b7f4f776e61626c653a2063616c6c6572206973206e6f7420746865206f776e6572600082015250565b60006125d8602083611c01565b91506125e3826125a2565b602082019050919050565b60006020820190508181036000830152612607816125cb565b9050919050565b600060808201905081810360008301526126288188611c56565b90506126376020830187611cc1565b818103604083015261264a81858761219d565b9050818103606083015261265e8184612479565b90509695505050505050565b7f4e487b7100000000000000000000000000000000000000000000000000000000600052603260045260246000fd5b7f43616e206f6e6c79206d616e616765206f776e20646973706c61796564206f6660008201527f6665727300000000000000000000000000000000000000000000000000000000602082015250565b60006126f5602483611c01565b915061270082612699565b604082019050919050565b60006020820190508181036000830152612724816126e8565b9050919050565b7f446973706c61796564206f6666657220697320696e6163746976652e00000000600082015250565b6000612761601c83611c01565b915061276c8261272b565b602082019050919050565b6000602082019050818103600083015261279081612754565b9050919050565b7f446566696e6564206f6666657220697320696e6163746976652e000000000000600082015250565b60006127cd601a83611c01565b91506127d882612797565b602082019050919050565b600060208201905081810360008301526127fc816127c0565b9050919050565b7f546865206f66666572657220646964206e6f74207370656369667920796f757260008201527f20646973706c61796564206f66666572206173207468652074616b65722e0000602082015250565b600061285f603e83611c01565b915061286a82612803565b604082019050919050565b6000602082019050818103600083015261288e81612852565b9050919050565b600060408201905081810360008301526128af8185611c56565b905081810360208301526128c38184611c56565b90509392505050565b7f43616e206f6e6c792072656d6f7665206f776e20646973706c61796564206f6660008201527f6665727300000000000000000000000000000000000000000000000000000000602082015250565b6000612928602483611c01565b9150612933826128cc565b604082019050919050565b600060208201905081810360008301526129578161291b565b9050919050565b7f446973706c61796564206f6666657220697320616c726561647920696e61637460008201527f6976652e00000000000000000000000000000000000000000000000000000000602082015250565b60006129ba602483611c01565b91506129c58261295e565b604082019050919050565b600060208201905081810360008301526129e9816129ad565b9050919050565b60006020820190508181036000830152612a0a8184611c56565b905092915050565b7f43616e206f6e6c792072656d6f7665206f776e20646566696e6564206f66666560008201527f7273000000000000000000000000000000000000000000000000000000000000602082015250565b6000612a6e602283611c01565b9150612a7982612a12565b604082019050919050565b60006020820190508181036000830152612a9d81612a61565b9050919050565b7f446566696e6564206f6666657220697320616c726561647920696e616374697660008201527f652e000000000000000000000000000000000000000000000000000000000000602082015250565b6000612b00602283611c01565b9150612b0b82612aa4565b604082019050919050565b60006020820190508181036000830152612b2f81612af3565b9050919050565b7f4f776e61626c653a206e6577206f776e657220697320746865207a65726f206160008201527f6464726573730000000000000000000000000000000000000000000000000000602082015250565b6000612b92602683611c01565b9150612b9d82612b36565b604082019050919050565b60006020820190508181036000830152612bc181612b85565b9050919050565b600080fd5b600080fd5b600080fd5b60008083356001602003843603038112612bf457612bf3612bc8565b5b80840192508235915067ffffffffffffffff821115612c1657612c15612bcd565b5b602083019250604082023603831315612c3257612c31612bd2565b5b509250929050565b60008135612c47816120a3565b80915050919050565b60008160001b9050919050565b600073ffffffffffffffffffffffffffffffffffffffff612c7d84612c50565b9350801983169250808416831791505092915050565b6000819050919050565b6000612cb8612cb3612cae84611c8f565b612c93565b611c8f565b9050919050565b6000612cca82612c9d565b9050919050565b6000612cdc82612cbf565b9050919050565b6000819050919050565b612cf682612cd1565b612d09612d0282612ce3565b8354612c5d565b8255505050565b60008135612d1d81611ae9565b80915050919050565b60007fffffffffffffffffffffffffffffffffffffffffffffffffffffffffffffffff612d5284612c50565b9350801983169250808416831791505092915050565b6000612d83612d7e612d7984611adf565b612c93565b611adf565b9050919050565b6000819050919050565b612d9d82612d68565b612db0612da982612d8a565b8354612d26565b8255505050565b600081016000830180612dc981612c3a565b9050612dd58184612ced565b505050600181016020830180612dea81612d10565b9050612df68184612d94565b5050505050565b612e078282612db7565b5050565b7f4e487b7100000000000000000000000000000000000000000000000000000000600052601160045260246000fd5b6000612e4582611adf565b91507fffffffffffffffffffffffffffffffffffffffffffffffffffffffffffffffff8203612e7757612e76612e0b565b5b600182019050919050565b60008083356001602003843603038112612e9f57612e9e612bc8565b5b80840192508235915067ffffffffffffffff821115612ec157612ec0612bcd565b5b602083019250604082023603831315612edd57612edc612bd2565b5b509250929050565b600081016000830180612ef781612c3a565b9050612f038184612ced565b505050600181016020830180612f1881612d10565b9050612f248184612d94565b5050505050565b612f358282612ee5565b5050565b7f4e487b7100000000000000000000000000000000000000000000000000000000600052601260045260246000fd5b6000612f7382611adf565b9150612f7e83611adf565b925082612f8e57612f8d612f39565b5b828204905092915050565b7f4e487b7100000000000000000000000000000000000000000000000000000000600052604160045260246000fd5b6000612fd382611adf565b9150612fde83611adf565b925082821015612ff157612ff0612e0b565b5b828203905092915050565b600061300782611adf565b915061301283611adf565b92508261302257613021612f39565b5b828206905092915050565b600061303882611adf565b915061304383611adf565b9250827fffffffffffffffffffffffffffffffffffffffffffffffffffffffffffffffff0382111561307857613077612e0b565b5b828201905092915050565b60007fffffffff0000000000000000000000000000000000000000000000000000000082169050919050565b6130b881613083565b82525050565b60006020820190506130d360008301846130af565b92915050565b6130e281611eee565b81146130ed57600080fd5b50565b6000815190506130ff816130d9565b92915050565b60006020828403121561311b5761311a611a70565b5b6000613129848285016130f0565b91505092915050565b60006060820190506131476000830186611cc1565b6131546020830185611cc1565b6131616040830184612033565b949350505050565b6000819050919050565b600061318e61318961318484613169565b612c93565b611adf565b9050919050565b61319e81613173565b82525050565b600082825260208201905092915050565b50565b60006131c56000836131a4565b91506131d0826131b5565b600082019050919050565b600060a0820190506131f06000830187611cc1565b6131fd6020830186611cc1565b61320a6040830185612033565b6132176060830184613195565b8181036080830152613228816131b8565b905095945050505050565b7f5361666545524332303a204552433230206f7065726174696f6e20646964206e60008201527f6f74207375636365656400000000000000000000000000000000000000000000602082015250565b600061328f602a83611c01565b915061329a82613233565b604082019050919050565b600060208201905081810360008301526132be81613282565b9050919050565b7f416464726573733a20696e73756666696369656e742062616c616e636520666f60008201527f722063616c6c0000000000000000000000000000000000000000000000000000602082015250565b6000613321602683611c01565b915061332c826132c5565b604082019050919050565b6000602082019050818103600083015261335081613314565b9050919050565b7f416464726573733a2063616c6c20746f206e6f6e2d636f6e7472616374000000600082015250565b600061338d601d83611c01565b915061339882613357565b602082019050919050565b600060208201905081810360008301526133bc81613380565b9050919050565b600081519050919050565b600081905092915050565b60006133e4826133c3565b6133ee81856133ce565b93506133fe818560208601611c12565b80840191505092915050565b600061341682846133d9565b91508190509291505056fea26469706673582212201504a113b0339653f01406982bf3c674c96e95c721dc5bd8afbefba9701dc7c064736f6c634300080e0033",
  "linkReferences": {},
  "deployedLinkReferences": {}
}